{
	"tests/5_SimpleAuction_test.sol": {
		"SimpleAuctionTest": {
			"abi": [
				{
					"inputs": [],
					"name": "beforeAll",
					"outputs": [],
					"stateMutability": "nonpayable",
					"type": "function"
				},
				{
					"inputs": [],
					"name": "bidSmall",
					"outputs": [],
					"stateMutability": "nonpayable",
					"type": "function"
				}
			],
			"devdoc": {
				"kind": "dev",
				"methods": {},
				"version": 1
			},
			"evm": {
				"assembly": "    /* \"tests/5_SimpleAuction_test.sol\":190:1085  contract SimpleAuctionTest {... */\n  mstore(0x40, 0x80)\n  callvalue\n  dup1\n  iszero\n  tag_1\n  jumpi\n  0x00\n  dup1\n  revert\ntag_1:\n  pop\n  dataSize(sub_0)\n  dup1\n  dataOffset(sub_0)\n  0x00\n  codecopy\n  0x00\n  return\nstop\n\nsub_0: assembly {\n        /* \"tests/5_SimpleAuction_test.sol\":190:1085  contract SimpleAuctionTest {... */\n      mstore(0x40, 0x80)\n      callvalue\n      dup1\n      iszero\n      tag_1\n      jumpi\n      0x00\n      dup1\n      revert\n    tag_1:\n      pop\n      jumpi(tag_2, lt(calldatasize, 0x04))\n      shr(0xe0, calldataload(0x00))\n      dup1\n      0x7fea0d4b\n      eq\n      tag_3\n      jumpi\n      dup1\n      0xa335fe29\n      eq\n      tag_4\n      jumpi\n    tag_2:\n      0x00\n      dup1\n      revert\n        /* \"tests/5_SimpleAuction_test.sol\":371:604  function beforeAll () public {... */\n    tag_3:\n      tag_5\n      tag_6\n      jump\t// in\n    tag_5:\n      stop\n        /* \"tests/5_SimpleAuction_test.sol\":614:1078  function bidSmall () public {... */\n    tag_4:\n      tag_7\n      tag_8\n      jump\t// in\n    tag_7:\n      stop\n        /* \"tests/5_SimpleAuction_test.sol\":371:604  function beforeAll () public {... */\n    tag_6:\n        /* \"tests/5_SimpleAuction_test.sol\":424:434  msg.sender */\n      caller\n        /* \"tests/5_SimpleAuction_test.sol\":410:421  thisAddress */\n      0x03\n      0x00\n        /* \"tests/5_SimpleAuction_test.sol\":410:434  thisAddress = msg.sender */\n      0x0100\n      exp\n      dup2\n      sload\n      dup2\n      0xffffffffffffffffffffffffffffffffffffffff\n      mul\n      not\n      and\n      swap1\n      dup4\n      0xffffffffffffffffffffffffffffffffffffffff\n      and\n      mul\n      or\n      swap1\n      sstore\n      pop\n        /* \"tests/5_SimpleAuction_test.sol\":484:487  100 */\n      0x64\n        /* \"tests/5_SimpleAuction_test.sol\":497:507  msg.sender */\n      caller\n        /* \"tests/5_SimpleAuction_test.sol\":466:509  new SimpleAuction(100, payable(msg.sender)) */\n      mload(0x40)\n      tag_10\n      swap1\n      tag_11\n      jump\t// in\n    tag_10:\n      tag_12\n      swap3\n      swap2\n      swap1\n      tag_13\n      jump\t// in\n    tag_12:\n      mload(0x40)\n      dup1\n      swap2\n      sub\n      swap1\n      0x00\n      create\n      dup1\n      iszero\n      dup1\n      iszero\n      tag_14\n      jumpi\n      returndatasize\n      0x00\n      dup1\n      returndatacopy\n      revert(0x00, returndatasize)\n    tag_14:\n      pop\n        /* \"tests/5_SimpleAuction_test.sol\":444:463  SimpleAuctionToTest */\n      0x01\n      0x00\n        /* \"tests/5_SimpleAuction_test.sol\":444:509  SimpleAuctionToTest = new SimpleAuction(100, payable(msg.sender)) */\n      0x0100\n      exp\n      dup2\n      sload\n      dup2\n      0xffffffffffffffffffffffffffffffffffffffff\n      mul\n      not\n      and\n      swap1\n      dup4\n      0xffffffffffffffffffffffffffffffffffffffff\n      and\n      mul\n      or\n      swap1\n      sstore\n      pop\n        /* \"tests/5_SimpleAuction_test.sol\":536:555  SimpleAuctionToTest */\n      0x01\n      0x00\n      swap1\n      sload\n      swap1\n      0x0100\n      exp\n      swap1\n      div\n      0xffffffffffffffffffffffffffffffffffffffff\n      and\n        /* \"tests/5_SimpleAuction_test.sol\":536:567  SimpleAuctionToTest.beneficiary */\n      0xffffffffffffffffffffffffffffffffffffffff\n      and\n        /* \"tests/5_SimpleAuction_test.sol\":519:533  AuctionAddress */\n      0x04\n      0x00\n        /* \"tests/5_SimpleAuction_test.sol\":519:575  AuctionAddress = SimpleAuctionToTest.beneficiary.address */\n      0x0100\n      exp\n      dup2\n      sload\n      dup2\n      0xffffffffffffffffffffffffffffffffffffffff\n      mul\n      not\n      and\n      swap1\n      dup4\n      0xffffffffffffffffffffffffffffffffffffffff\n      and\n      mul\n      or\n      swap1\n      sstore\n      pop\n        /* \"tests/5_SimpleAuction_test.sol\":594:596  10 */\n      0x0a\n        /* \"tests/5_SimpleAuction_test.sol\":585:591  amount */\n      0x02\n        /* \"tests/5_SimpleAuction_test.sol\":585:596  amount = 10 */\n      dup2\n      swap1\n      sstore\n      pop\n        /* \"tests/5_SimpleAuction_test.sol\":371:604  function beforeAll () public {... */\n      jump\t// out\n        /* \"tests/5_SimpleAuction_test.sol\":614:1078  function bidSmall () public {... */\n    tag_8:\n        /* \"tests/5_SimpleAuction_test.sol\":652:658  Assert */\n      linkerSymbol(\"acbfb1c35000d78352310b16a054a6b1066124b9c6f054b10c085f549bff80c6\")\n        /* \"tests/5_SimpleAuction_test.sol\":652:664  Assert.equal */\n      0xbfba5dd6\n        /* \"tests/5_SimpleAuction_test.sol\":665:675  msg.sender */\n      caller\n        /* \"tests/5_SimpleAuction_test.sol\":677:688  thisAddress */\n      0x03\n      0x00\n      swap1\n      sload\n      swap1\n      0x0100\n      exp\n      swap1\n      div\n      0xffffffffffffffffffffffffffffffffffffffff\n      and\n        /* \"tests/5_SimpleAuction_test.sol\":652:714  Assert.equal(msg.sender, thisAddress, \"This contract address\") */\n      mload(0x40)\n      dup4\n      0xffffffff\n      and\n      0xe0\n      shl\n      dup2\n      mstore\n      0x04\n      add\n      tag_16\n      swap3\n      swap2\n      swap1\n      tag_17\n      jump\t// in\n    tag_16:\n      0x20\n      mload(0x40)\n      dup1\n      dup4\n      sub\n      dup2\n      dup7\n      dup1\n      extcodesize\n      iszero\n      dup1\n      iszero\n      tag_18\n      jumpi\n      0x00\n      dup1\n      revert\n    tag_18:\n      pop\n      gas\n      delegatecall\n      iszero\n      dup1\n      iszero\n      tag_20\n      jumpi\n      returndatasize\n      0x00\n      dup1\n      returndatacopy\n      revert(0x00, returndatasize)\n    tag_20:\n      pop\n      pop\n      pop\n      pop\n      mload(0x40)\n      returndatasize\n      not(0x1f)\n      0x1f\n      dup3\n      add\n      and\n      dup3\n      add\n      dup1\n      0x40\n      mstore\n      pop\n      dup2\n      add\n      swap1\n      tag_21\n      swap2\n      swap1\n      tag_22\n      jump\t// in\n    tag_21:\n      pop\n        /* \"tests/5_SimpleAuction_test.sol\":724:730  Assert */\n      linkerSymbol(\"acbfb1c35000d78352310b16a054a6b1066124b9c6f054b10c085f549bff80c6\")\n        /* \"tests/5_SimpleAuction_test.sol\":724:736  Assert.equal */\n      0xbfba5dd6\n        /* \"tests/5_SimpleAuction_test.sol\":737:751  AuctionAddress */\n      0x04\n      0x00\n      swap1\n      sload\n      swap1\n      0x0100\n      exp\n      swap1\n      div\n      0xffffffffffffffffffffffffffffffffffffffff\n      and\n        /* \"tests/5_SimpleAuction_test.sol\":753:772  SimpleAuctionToTest */\n      0x01\n      0x00\n      swap1\n      sload\n      swap1\n      0x0100\n      exp\n      swap1\n      div\n      0xffffffffffffffffffffffffffffffffffffffff\n      and\n        /* \"tests/5_SimpleAuction_test.sol\":753:786  SimpleAuctionToTest.highestBidder */\n      0xffffffffffffffffffffffffffffffffffffffff\n      and\n        /* \"tests/5_SimpleAuction_test.sol\":724:823  Assert.equal(AuctionAddress, SimpleAuctionToTest.highestBidder.address, \"Auction contract address\") */\n      mload(0x40)\n      dup4\n      0xffffffff\n      and\n      0xe0\n      shl\n      dup2\n      mstore\n      0x04\n      add\n      tag_23\n      swap3\n      swap2\n      swap1\n      tag_24\n      jump\t// in\n    tag_23:\n      0x20\n      mload(0x40)\n      dup1\n      dup4\n      sub\n      dup2\n      dup7\n      dup1\n      extcodesize\n      iszero\n      dup1\n      iszero\n      tag_25\n      jumpi\n      0x00\n      dup1\n      revert\n    tag_25:\n      pop\n      gas\n      delegatecall\n      iszero\n      dup1\n      iszero\n      tag_27\n      jumpi\n      returndatasize\n      0x00\n      dup1\n      returndatacopy\n      revert(0x00, returndatasize)\n    tag_27:\n      pop\n      pop\n      pop\n      pop\n      mload(0x40)\n      returndatasize\n      not(0x1f)\n      0x1f\n      dup3\n      add\n      and\n      dup3\n      add\n      dup1\n      0x40\n      mstore\n      pop\n      dup2\n      add\n      swap1\n      tag_28\n      swap2\n      swap1\n      tag_22\n      jump\t// in\n    tag_28:\n      pop\n        /* \"tests/5_SimpleAuction_test.sol\":833:852  SimpleAuctionToTest */\n      0x01\n      0x00\n      swap1\n      sload\n      swap1\n      0x0100\n      exp\n      swap1\n      pop\n      pop\n        /* \"tests/5_SimpleAuction_test.sol\":877:883  Assert */\n      linkerSymbol(\"acbfb1c35000d78352310b16a054a6b1066124b9c6f054b10c085f549bff80c6\")\n        /* \"tests/5_SimpleAuction_test.sol\":877:889  Assert.equal */\n      0xabcd7960\n        /* \"tests/5_SimpleAuction_test.sol\":890:909  SimpleAuctionToTest */\n      0x01\n      0x00\n      swap1\n      sload\n      swap1\n      0x0100\n      exp\n      swap1\n      div\n      0xffffffffffffffffffffffffffffffffffffffff\n      and\n        /* \"tests/5_SimpleAuction_test.sol\":890:920  SimpleAuctionToTest.highestBid */\n      0xffffffffffffffffffffffffffffffffffffffff\n      and\n      0xd57bde79\n        /* \"tests/5_SimpleAuction_test.sol\":890:922  SimpleAuctionToTest.highestBid() */\n      mload(0x40)\n      dup2\n      0xffffffff\n      and\n      0xe0\n      shl\n      dup2\n      mstore\n      0x04\n      add\n      0x20\n      mload(0x40)\n      dup1\n      dup4\n      sub\n      dup2\n      dup7\n      dup1\n      extcodesize\n      iszero\n      dup1\n      iszero\n      tag_29\n      jumpi\n      0x00\n      dup1\n      revert\n    tag_29:\n      pop\n      gas\n      staticcall\n      iszero\n      dup1\n      iszero\n      tag_31\n      jumpi\n      returndatasize\n      0x00\n      dup1\n      returndatacopy\n      revert(0x00, returndatasize)\n    tag_31:\n      pop\n      pop\n      pop\n      pop\n      mload(0x40)\n      returndatasize\n      not(0x1f)\n      0x1f\n      dup3\n      add\n      and\n      dup3\n      add\n      dup1\n      0x40\n      mstore\n      pop\n      dup2\n      add\n      swap1\n      tag_32\n      swap2\n      swap1\n      tag_33\n      jump\t// in\n    tag_32:\n        /* \"tests/5_SimpleAuction_test.sol\":924:930  amount */\n      sload(0x02)\n        /* \"tests/5_SimpleAuction_test.sol\":877:960  Assert.equal(SimpleAuctionToTest.highestBid(), amount, \"is not 10 the highest bid\") */\n      mload(0x40)\n      dup4\n      0xffffffff\n      and\n      0xe0\n      shl\n      dup2\n      mstore\n      0x04\n      add\n      tag_34\n      swap3\n      swap2\n      swap1\n      tag_35\n      jump\t// in\n    tag_34:\n      0x20\n      mload(0x40)\n      dup1\n      dup4\n      sub\n      dup2\n      dup7\n      dup1\n      extcodesize\n      iszero\n      dup1\n      iszero\n      tag_36\n      jumpi\n      0x00\n      dup1\n      revert\n    tag_36:\n      pop\n      gas\n      delegatecall\n      iszero\n      dup1\n      iszero\n      tag_38\n      jumpi\n      returndatasize\n      0x00\n      dup1\n      returndatacopy\n      revert(0x00, returndatasize)\n    tag_38:\n      pop\n      pop\n      pop\n      pop\n      mload(0x40)\n      returndatasize\n      not(0x1f)\n      0x1f\n      dup3\n      add\n      and\n      dup3\n      add\n      dup1\n      0x40\n      mstore\n      pop\n      dup2\n      add\n      swap1\n      tag_39\n      swap2\n      swap1\n      tag_22\n      jump\t// in\n    tag_39:\n      pop\n        /* \"tests/5_SimpleAuction_test.sol\":978:984  Assert */\n      linkerSymbol(\"acbfb1c35000d78352310b16a054a6b1066124b9c6f054b10c085f549bff80c6\")\n        /* \"tests/5_SimpleAuction_test.sol\":978:990  Assert.equal */\n      0xbfba5dd6\n        /* \"tests/5_SimpleAuction_test.sol\":991:1010  SimpleAuctionToTest */\n      0x01\n      0x00\n      swap1\n      sload\n      swap1\n      0x0100\n      exp\n      swap1\n      div\n      0xffffffffffffffffffffffffffffffffffffffff\n      and\n        /* \"tests/5_SimpleAuction_test.sol\":991:1024  SimpleAuctionToTest.highestBidder */\n      0xffffffffffffffffffffffffffffffffffffffff\n      and\n        /* \"tests/5_SimpleAuction_test.sol\":1034:1045  thisAddress */\n      0x03\n      0x00\n      swap1\n      sload\n      swap1\n      0x0100\n      exp\n      swap1\n      div\n      0xffffffffffffffffffffffffffffffffffffffff\n      and\n        /* \"tests/5_SimpleAuction_test.sol\":978:1071  Assert.equal(SimpleAuctionToTest.highestBidder.address, thisAddress, \"is not highest bidder\") */\n      mload(0x40)\n      dup4\n      0xffffffff\n      and\n      0xe0\n      shl\n      dup2\n      mstore\n      0x04\n      add\n      tag_40\n      swap3\n      swap2\n      swap1\n      tag_41\n      jump\t// in\n    tag_40:\n      0x20\n      mload(0x40)\n      dup1\n      dup4\n      sub\n      dup2\n      dup7\n      dup1\n      extcodesize\n      iszero\n      dup1\n      iszero\n      tag_42\n      jumpi\n      0x00\n      dup1\n      revert\n    tag_42:\n      pop\n      gas\n      delegatecall\n      iszero\n      dup1\n      iszero\n      tag_44\n      jumpi\n      returndatasize\n      0x00\n      dup1\n      returndatacopy\n      revert(0x00, returndatasize)\n    tag_44:\n      pop\n      pop\n      pop\n      pop\n      mload(0x40)\n      returndatasize\n      not(0x1f)\n      0x1f\n      dup3\n      add\n      and\n      dup3\n      add\n      dup1\n      0x40\n      mstore\n      pop\n      dup2\n      add\n      swap1\n      tag_45\n      swap2\n      swap1\n      tag_22\n      jump\t// in\n    tag_45:\n      pop\n        /* \"tests/5_SimpleAuction_test.sol\":614:1078  function bidSmall () public {... */\n      jump\t// out\n    tag_11:\n      dataSize(sub_0)\n      dup1\n      dataOffset(sub_0)\n      dup4\n      codecopy\n      add\n      swap1\n      jump\t// out\n        /* \"#utility.yul\":7:144   */\n    tag_47:\n        /* \"#utility.yul\":61:66   */\n      0x00\n        /* \"#utility.yul\":92:98   */\n      dup2\n        /* \"#utility.yul\":86:99   */\n      mload\n        /* \"#utility.yul\":77:99   */\n      swap1\n      pop\n        /* \"#utility.yul\":108:138   */\n      tag_49\n        /* \"#utility.yul\":132:137   */\n      dup2\n        /* \"#utility.yul\":108:138   */\n      tag_50\n      jump\t// in\n    tag_49:\n        /* \"#utility.yul\":7:144   */\n      swap3\n      swap2\n      pop\n      pop\n      jump\t// out\n        /* \"#utility.yul\":150:293   */\n    tag_51:\n        /* \"#utility.yul\":207:212   */\n      0x00\n        /* \"#utility.yul\":238:244   */\n      dup2\n        /* \"#utility.yul\":232:245   */\n      mload\n        /* \"#utility.yul\":223:245   */\n      swap1\n      pop\n        /* \"#utility.yul\":254:287   */\n      tag_53\n        /* \"#utility.yul\":281:286   */\n      dup2\n        /* \"#utility.yul\":254:287   */\n      tag_54\n      jump\t// in\n    tag_53:\n        /* \"#utility.yul\":150:293   */\n      swap3\n      swap2\n      pop\n      pop\n      jump\t// out\n        /* \"#utility.yul\":299:644   */\n    tag_22:\n        /* \"#utility.yul\":366:372   */\n      0x00\n        /* \"#utility.yul\":415:417   */\n      0x20\n        /* \"#utility.yul\":403:412   */\n      dup3\n        /* \"#utility.yul\":394:401   */\n      dup5\n        /* \"#utility.yul\":390:413   */\n      sub\n        /* \"#utility.yul\":386:418   */\n      slt\n        /* \"#utility.yul\":383:502   */\n      iszero\n      tag_56\n      jumpi\n        /* \"#utility.yul\":421:500   */\n      tag_57\n      tag_58\n      jump\t// in\n    tag_57:\n        /* \"#utility.yul\":383:502   */\n    tag_56:\n        /* \"#utility.yul\":541:542   */\n      0x00\n        /* \"#utility.yul\":566:627   */\n      tag_59\n        /* \"#utility.yul\":619:626   */\n      dup5\n        /* \"#utility.yul\":610:616   */\n      dup3\n        /* \"#utility.yul\":599:608   */\n      dup6\n        /* \"#utility.yul\":595:617   */\n      add\n        /* \"#utility.yul\":566:627   */\n      tag_47\n      jump\t// in\n    tag_59:\n        /* \"#utility.yul\":556:627   */\n      swap2\n      pop\n        /* \"#utility.yul\":512:637   */\n      pop\n        /* \"#utility.yul\":299:644   */\n      swap3\n      swap2\n      pop\n      pop\n      jump\t// out\n        /* \"#utility.yul\":650:1001   */\n    tag_33:\n        /* \"#utility.yul\":720:726   */\n      0x00\n        /* \"#utility.yul\":769:771   */\n      0x20\n        /* \"#utility.yul\":757:766   */\n      dup3\n        /* \"#utility.yul\":748:755   */\n      dup5\n        /* \"#utility.yul\":744:767   */\n      sub\n        /* \"#utility.yul\":740:772   */\n      slt\n        /* \"#utility.yul\":737:856   */\n      iszero\n      tag_61\n      jumpi\n        /* \"#utility.yul\":775:854   */\n      tag_62\n      tag_58\n      jump\t// in\n    tag_62:\n        /* \"#utility.yul\":737:856   */\n    tag_61:\n        /* \"#utility.yul\":895:896   */\n      0x00\n        /* \"#utility.yul\":920:984   */\n      tag_63\n        /* \"#utility.yul\":976:983   */\n      dup5\n        /* \"#utility.yul\":967:973   */\n      dup3\n        /* \"#utility.yul\":956:965   */\n      dup6\n        /* \"#utility.yul\":952:974   */\n      add\n        /* \"#utility.yul\":920:984   */\n      tag_51\n      jump\t// in\n    tag_63:\n        /* \"#utility.yul\":910:984   */\n      swap2\n      pop\n        /* \"#utility.yul\":866:994   */\n      pop\n        /* \"#utility.yul\":650:1001   */\n      swap3\n      swap2\n      pop\n      pop\n      jump\t// out\n        /* \"#utility.yul\":1007:1149   */\n    tag_64:\n        /* \"#utility.yul\":1110:1142   */\n      tag_66\n        /* \"#utility.yul\":1136:1141   */\n      dup2\n        /* \"#utility.yul\":1110:1142   */\n      tag_67\n      jump\t// in\n    tag_66:\n        /* \"#utility.yul\":1105:1108   */\n      dup3\n        /* \"#utility.yul\":1098:1143   */\n      mstore\n        /* \"#utility.yul\":1007:1149   */\n      pop\n      pop\n      jump\t// out\n        /* \"#utility.yul\":1155:1281   */\n    tag_68:\n        /* \"#utility.yul\":1250:1274   */\n      tag_70\n        /* \"#utility.yul\":1268:1273   */\n      dup2\n        /* \"#utility.yul\":1250:1274   */\n      tag_71\n      jump\t// in\n    tag_70:\n        /* \"#utility.yul\":1245:1248   */\n      dup3\n        /* \"#utility.yul\":1238:1275   */\n      mstore\n        /* \"#utility.yul\":1155:1281   */\n      pop\n      pop\n      jump\t// out\n        /* \"#utility.yul\":1287:1438   */\n    tag_72:\n        /* \"#utility.yul\":1384:1431   */\n      tag_74\n        /* \"#utility.yul\":1425:1430   */\n      dup2\n        /* \"#utility.yul\":1384:1431   */\n      tag_75\n      jump\t// in\n    tag_74:\n        /* \"#utility.yul\":1379:1382   */\n      dup3\n        /* \"#utility.yul\":1372:1432   */\n      mstore\n        /* \"#utility.yul\":1287:1438   */\n      pop\n      pop\n      jump\t// out\n        /* \"#utility.yul\":1444:1826   */\n    tag_76:\n        /* \"#utility.yul\":1594:1597   */\n      0x00\n        /* \"#utility.yul\":1615:1690   */\n      tag_78\n        /* \"#utility.yul\":1687:1689   */\n      0x19\n        /* \"#utility.yul\":1682:1685   */\n      dup4\n        /* \"#utility.yul\":1615:1690   */\n      tag_79\n      jump\t// in\n    tag_78:\n        /* \"#utility.yul\":1608:1690   */\n      swap2\n      pop\n        /* \"#utility.yul\":1699:1792   */\n      tag_80\n        /* \"#utility.yul\":1788:1791   */\n      dup3\n        /* \"#utility.yul\":1699:1792   */\n      tag_81\n      jump\t// in\n    tag_80:\n        /* \"#utility.yul\":1817:1819   */\n      0x20\n        /* \"#utility.yul\":1812:1815   */\n      dup3\n        /* \"#utility.yul\":1808:1820   */\n      add\n        /* \"#utility.yul\":1801:1820   */\n      swap1\n      pop\n        /* \"#utility.yul\":1444:1826   */\n      swap2\n      swap1\n      pop\n      jump\t// out\n        /* \"#utility.yul\":1832:2214   */\n    tag_82:\n        /* \"#utility.yul\":1982:1985   */\n      0x00\n        /* \"#utility.yul\":2003:2078   */\n      tag_84\n        /* \"#utility.yul\":2075:2077   */\n      0x15\n        /* \"#utility.yul\":2070:2073   */\n      dup4\n        /* \"#utility.yul\":2003:2078   */\n      tag_79\n      jump\t// in\n    tag_84:\n        /* \"#utility.yul\":1996:2078   */\n      swap2\n      pop\n        /* \"#utility.yul\":2087:2180   */\n      tag_85\n        /* \"#utility.yul\":2176:2179   */\n      dup3\n        /* \"#utility.yul\":2087:2180   */\n      tag_86\n      jump\t// in\n    tag_85:\n        /* \"#utility.yul\":2205:2207   */\n      0x20\n        /* \"#utility.yul\":2200:2203   */\n      dup3\n        /* \"#utility.yul\":2196:2208   */\n      add\n        /* \"#utility.yul\":2189:2208   */\n      swap1\n      pop\n        /* \"#utility.yul\":1832:2214   */\n      swap2\n      swap1\n      pop\n      jump\t// out\n        /* \"#utility.yul\":2220:2602   */\n    tag_87:\n        /* \"#utility.yul\":2370:2373   */\n      0x00\n        /* \"#utility.yul\":2391:2466   */\n      tag_89\n        /* \"#utility.yul\":2463:2465   */\n      0x18\n        /* \"#utility.yul\":2458:2461   */\n      dup4\n        /* \"#utility.yul\":2391:2466   */\n      tag_79\n      jump\t// in\n    tag_89:\n        /* \"#utility.yul\":2384:2466   */\n      swap2\n      pop\n        /* \"#utility.yul\":2475:2568   */\n      tag_90\n        /* \"#utility.yul\":2564:2567   */\n      dup3\n        /* \"#utility.yul\":2475:2568   */\n      tag_91\n      jump\t// in\n    tag_90:\n        /* \"#utility.yul\":2593:2595   */\n      0x20\n        /* \"#utility.yul\":2588:2591   */\n      dup3\n        /* \"#utility.yul\":2584:2596   */\n      add\n        /* \"#utility.yul\":2577:2596   */\n      swap1\n      pop\n        /* \"#utility.yul\":2220:2602   */\n      swap2\n      swap1\n      pop\n      jump\t// out\n        /* \"#utility.yul\":2608:2990   */\n    tag_92:\n        /* \"#utility.yul\":2758:2761   */\n      0x00\n        /* \"#utility.yul\":2779:2854   */\n      tag_94\n        /* \"#utility.yul\":2851:2853   */\n      0x15\n        /* \"#utility.yul\":2846:2849   */\n      dup4\n        /* \"#utility.yul\":2779:2854   */\n      tag_79\n      jump\t// in\n    tag_94:\n        /* \"#utility.yul\":2772:2854   */\n      swap2\n      pop\n        /* \"#utility.yul\":2863:2956   */\n      tag_95\n        /* \"#utility.yul\":2952:2955   */\n      dup3\n        /* \"#utility.yul\":2863:2956   */\n      tag_96\n      jump\t// in\n    tag_95:\n        /* \"#utility.yul\":2981:2983   */\n      0x20\n        /* \"#utility.yul\":2976:2979   */\n      dup3\n        /* \"#utility.yul\":2972:2984   */\n      add\n        /* \"#utility.yul\":2965:2984   */\n      swap1\n      pop\n        /* \"#utility.yul\":2608:2990   */\n      swap2\n      swap1\n      pop\n      jump\t// out\n        /* \"#utility.yul\":2996:3122   */\n    tag_97:\n        /* \"#utility.yul\":3091:3115   */\n      tag_99\n        /* \"#utility.yul\":3109:3114   */\n      dup2\n        /* \"#utility.yul\":3091:3115   */\n      tag_100\n      jump\t// in\n    tag_99:\n        /* \"#utility.yul\":3086:3089   */\n      dup3\n        /* \"#utility.yul\":3079:3116   */\n      mstore\n        /* \"#utility.yul\":2996:3122   */\n      pop\n      pop\n      jump\t// out\n        /* \"#utility.yul\":3128:3799   */\n    tag_41:\n        /* \"#utility.yul\":3358:3362   */\n      0x00\n        /* \"#utility.yul\":3396:3398   */\n      0x60\n        /* \"#utility.yul\":3385:3394   */\n      dup3\n        /* \"#utility.yul\":3381:3399   */\n      add\n        /* \"#utility.yul\":3373:3399   */\n      swap1\n      pop\n        /* \"#utility.yul\":3409:3488   */\n      tag_102\n        /* \"#utility.yul\":3485:3486   */\n      0x00\n        /* \"#utility.yul\":3474:3483   */\n      dup4\n        /* \"#utility.yul\":3470:3487   */\n      add\n        /* \"#utility.yul\":3461:3467   */\n      dup6\n        /* \"#utility.yul\":3409:3488   */\n      tag_68\n      jump\t// in\n    tag_102:\n        /* \"#utility.yul\":3498:3578   */\n      tag_103\n        /* \"#utility.yul\":3574:3576   */\n      0x20\n        /* \"#utility.yul\":3563:3572   */\n      dup4\n        /* \"#utility.yul\":3559:3577   */\n      add\n        /* \"#utility.yul\":3550:3556   */\n      dup5\n        /* \"#utility.yul\":3498:3578   */\n      tag_68\n      jump\t// in\n    tag_103:\n        /* \"#utility.yul\":3625:3634   */\n      dup2\n        /* \"#utility.yul\":3619:3623   */\n      dup2\n        /* \"#utility.yul\":3615:3635   */\n      sub\n        /* \"#utility.yul\":3610:3612   */\n      0x40\n        /* \"#utility.yul\":3599:3608   */\n      dup4\n        /* \"#utility.yul\":3595:3613   */\n      add\n        /* \"#utility.yul\":3588:3636   */\n      mstore\n        /* \"#utility.yul\":3653:3792   */\n      tag_104\n        /* \"#utility.yul\":3787:3791   */\n      dup2\n        /* \"#utility.yul\":3653:3792   */\n      tag_82\n      jump\t// in\n    tag_104:\n        /* \"#utility.yul\":3645:3792   */\n      swap1\n      pop\n        /* \"#utility.yul\":3128:3799   */\n      swap4\n      swap3\n      pop\n      pop\n      pop\n      jump\t// out\n        /* \"#utility.yul\":3805:4476   */\n    tag_24:\n        /* \"#utility.yul\":4035:4039   */\n      0x00\n        /* \"#utility.yul\":4073:4075   */\n      0x60\n        /* \"#utility.yul\":4062:4071   */\n      dup3\n        /* \"#utility.yul\":4058:4076   */\n      add\n        /* \"#utility.yul\":4050:4076   */\n      swap1\n      pop\n        /* \"#utility.yul\":4086:4165   */\n      tag_106\n        /* \"#utility.yul\":4162:4163   */\n      0x00\n        /* \"#utility.yul\":4151:4160   */\n      dup4\n        /* \"#utility.yul\":4147:4164   */\n      add\n        /* \"#utility.yul\":4138:4144   */\n      dup6\n        /* \"#utility.yul\":4086:4165   */\n      tag_68\n      jump\t// in\n    tag_106:\n        /* \"#utility.yul\":4175:4255   */\n      tag_107\n        /* \"#utility.yul\":4251:4253   */\n      0x20\n        /* \"#utility.yul\":4240:4249   */\n      dup4\n        /* \"#utility.yul\":4236:4254   */\n      add\n        /* \"#utility.yul\":4227:4233   */\n      dup5\n        /* \"#utility.yul\":4175:4255   */\n      tag_68\n      jump\t// in\n    tag_107:\n        /* \"#utility.yul\":4302:4311   */\n      dup2\n        /* \"#utility.yul\":4296:4300   */\n      dup2\n        /* \"#utility.yul\":4292:4312   */\n      sub\n        /* \"#utility.yul\":4287:4289   */\n      0x40\n        /* \"#utility.yul\":4276:4285   */\n      dup4\n        /* \"#utility.yul\":4272:4290   */\n      add\n        /* \"#utility.yul\":4265:4313   */\n      mstore\n        /* \"#utility.yul\":4330:4469   */\n      tag_108\n        /* \"#utility.yul\":4464:4468   */\n      dup2\n        /* \"#utility.yul\":4330:4469   */\n      tag_87\n      jump\t// in\n    tag_108:\n        /* \"#utility.yul\":4322:4469   */\n      swap1\n      pop\n        /* \"#utility.yul\":3805:4476   */\n      swap4\n      swap3\n      pop\n      pop\n      pop\n      jump\t// out\n        /* \"#utility.yul\":4482:5153   */\n    tag_17:\n        /* \"#utility.yul\":4712:4716   */\n      0x00\n        /* \"#utility.yul\":4750:4752   */\n      0x60\n        /* \"#utility.yul\":4739:4748   */\n      dup3\n        /* \"#utility.yul\":4735:4753   */\n      add\n        /* \"#utility.yul\":4727:4753   */\n      swap1\n      pop\n        /* \"#utility.yul\":4763:4842   */\n      tag_110\n        /* \"#utility.yul\":4839:4840   */\n      0x00\n        /* \"#utility.yul\":4828:4837   */\n      dup4\n        /* \"#utility.yul\":4824:4841   */\n      add\n        /* \"#utility.yul\":4815:4821   */\n      dup6\n        /* \"#utility.yul\":4763:4842   */\n      tag_68\n      jump\t// in\n    tag_110:\n        /* \"#utility.yul\":4852:4932   */\n      tag_111\n        /* \"#utility.yul\":4928:4930   */\n      0x20\n        /* \"#utility.yul\":4917:4926   */\n      dup4\n        /* \"#utility.yul\":4913:4931   */\n      add\n        /* \"#utility.yul\":4904:4910   */\n      dup5\n        /* \"#utility.yul\":4852:4932   */\n      tag_68\n      jump\t// in\n    tag_111:\n        /* \"#utility.yul\":4979:4988   */\n      dup2\n        /* \"#utility.yul\":4973:4977   */\n      dup2\n        /* \"#utility.yul\":4969:4989   */\n      sub\n        /* \"#utility.yul\":4964:4966   */\n      0x40\n        /* \"#utility.yul\":4953:4962   */\n      dup4\n        /* \"#utility.yul\":4949:4967   */\n      add\n        /* \"#utility.yul\":4942:4990   */\n      mstore\n        /* \"#utility.yul\":5007:5146   */\n      tag_112\n        /* \"#utility.yul\":5141:5145   */\n      dup2\n        /* \"#utility.yul\":5007:5146   */\n      tag_92\n      jump\t// in\n    tag_112:\n        /* \"#utility.yul\":4999:5146   */\n      swap1\n      pop\n        /* \"#utility.yul\":4482:5153   */\n      swap4\n      swap3\n      pop\n      pop\n      pop\n      jump\t// out\n        /* \"#utility.yul\":5159:5543   */\n    tag_13:\n        /* \"#utility.yul\":5306:5310   */\n      0x00\n        /* \"#utility.yul\":5344:5346   */\n      0x40\n        /* \"#utility.yul\":5333:5342   */\n      dup3\n        /* \"#utility.yul\":5329:5347   */\n      add\n        /* \"#utility.yul\":5321:5347   */\n      swap1\n      pop\n        /* \"#utility.yul\":5357:5438   */\n      tag_114\n        /* \"#utility.yul\":5435:5436   */\n      0x00\n        /* \"#utility.yul\":5424:5433   */\n      dup4\n        /* \"#utility.yul\":5420:5437   */\n      add\n        /* \"#utility.yul\":5411:5417   */\n      dup6\n        /* \"#utility.yul\":5357:5438   */\n      tag_72\n      jump\t// in\n    tag_114:\n        /* \"#utility.yul\":5448:5536   */\n      tag_115\n        /* \"#utility.yul\":5532:5534   */\n      0x20\n        /* \"#utility.yul\":5521:5530   */\n      dup4\n        /* \"#utility.yul\":5517:5535   */\n      add\n        /* \"#utility.yul\":5508:5514   */\n      dup5\n        /* \"#utility.yul\":5448:5536   */\n      tag_64\n      jump\t// in\n    tag_115:\n        /* \"#utility.yul\":5159:5543   */\n      swap4\n      swap3\n      pop\n      pop\n      pop\n      jump\t// out\n        /* \"#utility.yul\":5549:6220   */\n    tag_35:\n        /* \"#utility.yul\":5779:5783   */\n      0x00\n        /* \"#utility.yul\":5817:5819   */\n      0x60\n        /* \"#utility.yul\":5806:5815   */\n      dup3\n        /* \"#utility.yul\":5802:5820   */\n      add\n        /* \"#utility.yul\":5794:5820   */\n      swap1\n      pop\n        /* \"#utility.yul\":5830:5909   */\n      tag_117\n        /* \"#utility.yul\":5906:5907   */\n      0x00\n        /* \"#utility.yul\":5895:5904   */\n      dup4\n        /* \"#utility.yul\":5891:5908   */\n      add\n        /* \"#utility.yul\":5882:5888   */\n      dup6\n        /* \"#utility.yul\":5830:5909   */\n      tag_97\n      jump\t// in\n    tag_117:\n        /* \"#utility.yul\":5919:5999   */\n      tag_118\n        /* \"#utility.yul\":5995:5997   */\n      0x20\n        /* \"#utility.yul\":5984:5993   */\n      dup4\n        /* \"#utility.yul\":5980:5998   */\n      add\n        /* \"#utility.yul\":5971:5977   */\n      dup5\n        /* \"#utility.yul\":5919:5999   */\n      tag_97\n      jump\t// in\n    tag_118:\n        /* \"#utility.yul\":6046:6055   */\n      dup2\n        /* \"#utility.yul\":6040:6044   */\n      dup2\n        /* \"#utility.yul\":6036:6056   */\n      sub\n        /* \"#utility.yul\":6031:6033   */\n      0x40\n        /* \"#utility.yul\":6020:6029   */\n      dup4\n        /* \"#utility.yul\":6016:6034   */\n      add\n        /* \"#utility.yul\":6009:6057   */\n      mstore\n        /* \"#utility.yul\":6074:6213   */\n      tag_119\n        /* \"#utility.yul\":6208:6212   */\n      dup2\n        /* \"#utility.yul\":6074:6213   */\n      tag_76\n      jump\t// in\n    tag_119:\n        /* \"#utility.yul\":6066:6213   */\n      swap1\n      pop\n        /* \"#utility.yul\":5549:6220   */\n      swap4\n      swap3\n      pop\n      pop\n      pop\n      jump\t// out\n        /* \"#utility.yul\":6307:6484   */\n    tag_79:\n        /* \"#utility.yul\":6399:6410   */\n      0x00\n        /* \"#utility.yul\":6433:6439   */\n      dup3\n        /* \"#utility.yul\":6428:6431   */\n      dup3\n        /* \"#utility.yul\":6421:6440   */\n      mstore\n        /* \"#utility.yul\":6473:6477   */\n      0x20\n        /* \"#utility.yul\":6468:6471   */\n      dup3\n        /* \"#utility.yul\":6464:6478   */\n      add\n        /* \"#utility.yul\":6449:6478   */\n      swap1\n      pop\n        /* \"#utility.yul\":6307:6484   */\n      swap3\n      swap2\n      pop\n      pop\n      jump\t// out\n        /* \"#utility.yul\":6490:6586   */\n    tag_71:\n        /* \"#utility.yul\":6527:6534   */\n      0x00\n        /* \"#utility.yul\":6556:6580   */\n      tag_124\n        /* \"#utility.yul\":6574:6579   */\n      dup3\n        /* \"#utility.yul\":6556:6580   */\n      tag_125\n      jump\t// in\n    tag_124:\n        /* \"#utility.yul\":6545:6580   */\n      swap1\n      pop\n        /* \"#utility.yul\":6490:6586   */\n      swap2\n      swap1\n      pop\n      jump\t// out\n        /* \"#utility.yul\":6592:6696   */\n    tag_67:\n        /* \"#utility.yul\":6637:6644   */\n      0x00\n        /* \"#utility.yul\":6666:6690   */\n      tag_127\n        /* \"#utility.yul\":6684:6689   */\n      dup3\n        /* \"#utility.yul\":6666:6690   */\n      tag_125\n      jump\t// in\n    tag_127:\n        /* \"#utility.yul\":6655:6690   */\n      swap1\n      pop\n        /* \"#utility.yul\":6592:6696   */\n      swap2\n      swap1\n      pop\n      jump\t// out\n        /* \"#utility.yul\":6702:6792   */\n    tag_128:\n        /* \"#utility.yul\":6736:6743   */\n      0x00\n        /* \"#utility.yul\":6779:6784   */\n      dup2\n        /* \"#utility.yul\":6772:6785   */\n      iszero\n        /* \"#utility.yul\":6765:6786   */\n      iszero\n        /* \"#utility.yul\":6754:6786   */\n      swap1\n      pop\n        /* \"#utility.yul\":6702:6792   */\n      swap2\n      swap1\n      pop\n      jump\t// out\n        /* \"#utility.yul\":6798:6924   */\n    tag_125:\n        /* \"#utility.yul\":6835:6842   */\n      0x00\n        /* \"#utility.yul\":6875:6917   */\n      0xffffffffffffffffffffffffffffffffffffffff\n        /* \"#utility.yul\":6868:6873   */\n      dup3\n        /* \"#utility.yul\":6864:6918   */\n      and\n        /* \"#utility.yul\":6853:6918   */\n      swap1\n      pop\n        /* \"#utility.yul\":6798:6924   */\n      swap2\n      swap1\n      pop\n      jump\t// out\n        /* \"#utility.yul\":6930:7007   */\n    tag_100:\n        /* \"#utility.yul\":6967:6974   */\n      0x00\n        /* \"#utility.yul\":6996:7001   */\n      dup2\n        /* \"#utility.yul\":6985:7001   */\n      swap1\n      pop\n        /* \"#utility.yul\":6930:7007   */\n      swap2\n      swap1\n      pop\n      jump\t// out\n        /* \"#utility.yul\":7013:7136   */\n    tag_75:\n        /* \"#utility.yul\":7073:7082   */\n      0x00\n        /* \"#utility.yul\":7106:7130   */\n      tag_133\n        /* \"#utility.yul\":7124:7129   */\n      dup3\n        /* \"#utility.yul\":7106:7130   */\n      tag_100\n      jump\t// in\n    tag_133:\n        /* \"#utility.yul\":7093:7130   */\n      swap1\n      pop\n        /* \"#utility.yul\":7013:7136   */\n      swap2\n      swap1\n      pop\n      jump\t// out\n        /* \"#utility.yul\":7265:7382   */\n    tag_58:\n        /* \"#utility.yul\":7374:7375   */\n      0x00\n        /* \"#utility.yul\":7371:7372   */\n      dup1\n        /* \"#utility.yul\":7364:7376   */\n      revert\n        /* \"#utility.yul\":7388:7563   */\n    tag_81:\n        /* \"#utility.yul\":7528:7555   */\n      0x6973206e6f742031302074686520686967686573742062696400000000000000\n        /* \"#utility.yul\":7524:7525   */\n      0x00\n        /* \"#utility.yul\":7516:7522   */\n      dup3\n        /* \"#utility.yul\":7512:7526   */\n      add\n        /* \"#utility.yul\":7505:7556   */\n      mstore\n        /* \"#utility.yul\":7388:7563   */\n      pop\n      jump\t// out\n        /* \"#utility.yul\":7569:7740   */\n    tag_86:\n        /* \"#utility.yul\":7709:7732   */\n      0x6973206e6f742068696768657374206269646465720000000000000000000000\n        /* \"#utility.yul\":7705:7706   */\n      0x00\n        /* \"#utility.yul\":7697:7703   */\n      dup3\n        /* \"#utility.yul\":7693:7707   */\n      add\n        /* \"#utility.yul\":7686:7733   */\n      mstore\n        /* \"#utility.yul\":7569:7740   */\n      pop\n      jump\t// out\n        /* \"#utility.yul\":7746:7920   */\n    tag_91:\n        /* \"#utility.yul\":7886:7912   */\n      0x41756374696f6e20636f6e747261637420616464726573730000000000000000\n        /* \"#utility.yul\":7882:7883   */\n      0x00\n        /* \"#utility.yul\":7874:7880   */\n      dup3\n        /* \"#utility.yul\":7870:7884   */\n      add\n        /* \"#utility.yul\":7863:7913   */\n      mstore\n        /* \"#utility.yul\":7746:7920   */\n      pop\n      jump\t// out\n        /* \"#utility.yul\":7926:8097   */\n    tag_96:\n        /* \"#utility.yul\":8066:8089   */\n      0x5468697320636f6e747261637420616464726573730000000000000000000000\n        /* \"#utility.yul\":8062:8063   */\n      0x00\n        /* \"#utility.yul\":8054:8060   */\n      dup3\n        /* \"#utility.yul\":8050:8064   */\n      add\n        /* \"#utility.yul\":8043:8090   */\n      mstore\n        /* \"#utility.yul\":7926:8097   */\n      pop\n      jump\t// out\n        /* \"#utility.yul\":8103:8219   */\n    tag_50:\n        /* \"#utility.yul\":8173:8194   */\n      tag_142\n        /* \"#utility.yul\":8188:8193   */\n      dup2\n        /* \"#utility.yul\":8173:8194   */\n      tag_128\n      jump\t// in\n    tag_142:\n        /* \"#utility.yul\":8166:8171   */\n      dup2\n        /* \"#utility.yul\":8163:8195   */\n      eq\n        /* \"#utility.yul\":8153:8213   */\n      tag_143\n      jumpi\n        /* \"#utility.yul\":8209:8210   */\n      0x00\n        /* \"#utility.yul\":8206:8207   */\n      dup1\n        /* \"#utility.yul\":8199:8211   */\n      revert\n        /* \"#utility.yul\":8153:8213   */\n    tag_143:\n        /* \"#utility.yul\":8103:8219   */\n      pop\n      jump\t// out\n        /* \"#utility.yul\":8225:8347   */\n    tag_54:\n        /* \"#utility.yul\":8298:8322   */\n      tag_145\n        /* \"#utility.yul\":8316:8321   */\n      dup2\n        /* \"#utility.yul\":8298:8322   */\n      tag_100\n      jump\t// in\n    tag_145:\n        /* \"#utility.yul\":8291:8296   */\n      dup2\n        /* \"#utility.yul\":8288:8323   */\n      eq\n        /* \"#utility.yul\":8278:8341   */\n      tag_146\n      jumpi\n        /* \"#utility.yul\":8337:8338   */\n      0x00\n        /* \"#utility.yul\":8334:8335   */\n      dup1\n        /* \"#utility.yul\":8327:8339   */\n      revert\n        /* \"#utility.yul\":8278:8341   */\n    tag_146:\n        /* \"#utility.yul\":8225:8347   */\n      pop\n      jump\t// out\n    stop\n\n    sub_0: assembly {\n            /* \"contracts/5_SimpleAuction.sol\":60:5086  contract SimpleAuction {... */\n          mstore(0x40, 0x80)\n            /* \"contracts/5_SimpleAuction.sol\":1472:1665  constructor(... */\n          callvalue\n          dup1\n          iszero\n          tag_1\n          jumpi\n          0x00\n          dup1\n          revert\n        tag_1:\n          pop\n          mload(0x40)\n          sub(codesize, bytecodeSize)\n          dup1\n          bytecodeSize\n          dup4\n          codecopy\n          dup2\n          dup2\n          add\n          0x40\n          mstore\n          dup2\n          add\n          swap1\n          tag_2\n          swap2\n          swap1\n          tag_3\n          jump\t// in\n        tag_2:\n            /* \"contracts/5_SimpleAuction.sol\":1584:1602  beneficiaryAddress */\n          dup1\n            /* \"contracts/5_SimpleAuction.sol\":1570:1581  beneficiary */\n          0x00\n          dup1\n            /* \"contracts/5_SimpleAuction.sol\":1570:1602  beneficiary = beneficiaryAddress */\n          0x0100\n          exp\n          dup2\n          sload\n          dup2\n          0xffffffffffffffffffffffffffffffffffffffff\n          mul\n          not\n          and\n          swap1\n          dup4\n          0xffffffffffffffffffffffffffffffffffffffff\n          and\n          mul\n          or\n          swap1\n          sstore\n          pop\n            /* \"contracts/5_SimpleAuction.sol\":1647:1658  biddingTime */\n          dup2\n            /* \"contracts/5_SimpleAuction.sol\":1629:1644  block.timestamp */\n          timestamp\n            /* \"contracts/5_SimpleAuction.sol\":1629:1658  block.timestamp + biddingTime */\n          tag_6\n          swap2\n          swap1\n          tag_7\n          jump\t// in\n        tag_6:\n            /* \"contracts/5_SimpleAuction.sol\":1612:1626  auctionEndTime */\n          0x01\n            /* \"contracts/5_SimpleAuction.sol\":1612:1658  auctionEndTime = block.timestamp + biddingTime */\n          dup2\n          swap1\n          sstore\n          pop\n            /* \"contracts/5_SimpleAuction.sol\":1472:1665  constructor(... */\n          pop\n          pop\n            /* \"contracts/5_SimpleAuction.sol\":60:5086  contract SimpleAuction {... */\n          jump(tag_8)\n            /* \"#utility.yul\":7:166   */\n        tag_10:\n            /* \"#utility.yul\":72:77   */\n          0x00\n            /* \"#utility.yul\":103:109   */\n          dup2\n            /* \"#utility.yul\":97:110   */\n          mload\n            /* \"#utility.yul\":88:110   */\n          swap1\n          pop\n            /* \"#utility.yul\":119:160   */\n          tag_12\n            /* \"#utility.yul\":154:159   */\n          dup2\n            /* \"#utility.yul\":119:160   */\n          tag_13\n          jump\t// in\n        tag_12:\n            /* \"#utility.yul\":7:166   */\n          swap3\n          swap2\n          pop\n          pop\n          jump\t// out\n            /* \"#utility.yul\":172:315   */\n        tag_14:\n            /* \"#utility.yul\":229:234   */\n          0x00\n            /* \"#utility.yul\":260:266   */\n          dup2\n            /* \"#utility.yul\":254:267   */\n          mload\n            /* \"#utility.yul\":245:267   */\n          swap1\n          pop\n            /* \"#utility.yul\":276:309   */\n          tag_16\n            /* \"#utility.yul\":303:308   */\n          dup2\n            /* \"#utility.yul\":276:309   */\n          tag_17\n          jump\t// in\n        tag_16:\n            /* \"#utility.yul\":172:315   */\n          swap3\n          swap2\n          pop\n          pop\n          jump\t// out\n            /* \"#utility.yul\":321:844   */\n        tag_3:\n            /* \"#utility.yul\":408:414   */\n          0x00\n            /* \"#utility.yul\":416:422   */\n          dup1\n            /* \"#utility.yul\":465:467   */\n          0x40\n            /* \"#utility.yul\":453:462   */\n          dup4\n            /* \"#utility.yul\":444:451   */\n          dup6\n            /* \"#utility.yul\":440:463   */\n          sub\n            /* \"#utility.yul\":436:468   */\n          slt\n            /* \"#utility.yul\":433:552   */\n          iszero\n          tag_19\n          jumpi\n            /* \"#utility.yul\":471:550   */\n          tag_20\n          tag_21\n          jump\t// in\n        tag_20:\n            /* \"#utility.yul\":433:552   */\n        tag_19:\n            /* \"#utility.yul\":591:592   */\n          0x00\n            /* \"#utility.yul\":616:680   */\n          tag_22\n            /* \"#utility.yul\":672:679   */\n          dup6\n            /* \"#utility.yul\":663:669   */\n          dup3\n            /* \"#utility.yul\":652:661   */\n          dup7\n            /* \"#utility.yul\":648:670   */\n          add\n            /* \"#utility.yul\":616:680   */\n          tag_14\n          jump\t// in\n        tag_22:\n            /* \"#utility.yul\":606:680   */\n          swap3\n          pop\n            /* \"#utility.yul\":562:690   */\n          pop\n            /* \"#utility.yul\":729:731   */\n          0x20\n            /* \"#utility.yul\":755:827   */\n          tag_23\n            /* \"#utility.yul\":819:826   */\n          dup6\n            /* \"#utility.yul\":810:816   */\n          dup3\n            /* \"#utility.yul\":799:808   */\n          dup7\n            /* \"#utility.yul\":795:817   */\n          add\n            /* \"#utility.yul\":755:827   */\n          tag_10\n          jump\t// in\n        tag_23:\n            /* \"#utility.yul\":745:827   */\n          swap2\n          pop\n            /* \"#utility.yul\":700:837   */\n          pop\n            /* \"#utility.yul\":321:844   */\n          swap3\n          pop\n          swap3\n          swap1\n          pop\n          jump\t// out\n            /* \"#utility.yul\":931:1236   */\n        tag_7:\n            /* \"#utility.yul\":971:974   */\n          0x00\n            /* \"#utility.yul\":990:1010   */\n          tag_27\n            /* \"#utility.yul\":1008:1009   */\n          dup3\n            /* \"#utility.yul\":990:1010   */\n          tag_28\n          jump\t// in\n        tag_27:\n            /* \"#utility.yul\":985:1010   */\n          swap2\n          pop\n            /* \"#utility.yul\":1024:1044   */\n          tag_29\n            /* \"#utility.yul\":1042:1043   */\n          dup4\n            /* \"#utility.yul\":1024:1044   */\n          tag_28\n          jump\t// in\n        tag_29:\n            /* \"#utility.yul\":1019:1044   */\n          swap3\n          pop\n            /* \"#utility.yul\":1178:1179   */\n          dup3\n            /* \"#utility.yul\":1110:1176   */\n          0xffffffffffffffffffffffffffffffffffffffffffffffffffffffffffffffff\n            /* \"#utility.yul\":1106:1180   */\n          sub\n            /* \"#utility.yul\":1103:1104   */\n          dup3\n            /* \"#utility.yul\":1100:1181   */\n          gt\n            /* \"#utility.yul\":1097:1204   */\n          iszero\n          tag_30\n          jumpi\n            /* \"#utility.yul\":1184:1202   */\n          tag_31\n          tag_32\n          jump\t// in\n        tag_31:\n            /* \"#utility.yul\":1097:1204   */\n        tag_30:\n            /* \"#utility.yul\":1228:1229   */\n          dup3\n            /* \"#utility.yul\":1225:1226   */\n          dup3\n            /* \"#utility.yul\":1221:1230   */\n          add\n            /* \"#utility.yul\":1214:1230   */\n          swap1\n          pop\n            /* \"#utility.yul\":931:1236   */\n          swap3\n          swap2\n          pop\n          pop\n          jump\t// out\n            /* \"#utility.yul\":1242:1346   */\n        tag_33:\n            /* \"#utility.yul\":1287:1294   */\n          0x00\n            /* \"#utility.yul\":1316:1340   */\n          tag_35\n            /* \"#utility.yul\":1334:1339   */\n          dup3\n            /* \"#utility.yul\":1316:1340   */\n          tag_36\n          jump\t// in\n        tag_35:\n            /* \"#utility.yul\":1305:1340   */\n          swap1\n          pop\n            /* \"#utility.yul\":1242:1346   */\n          swap2\n          swap1\n          pop\n          jump\t// out\n            /* \"#utility.yul\":1352:1478   */\n        tag_36:\n            /* \"#utility.yul\":1389:1396   */\n          0x00\n            /* \"#utility.yul\":1429:1471   */\n          0xffffffffffffffffffffffffffffffffffffffff\n            /* \"#utility.yul\":1422:1427   */\n          dup3\n            /* \"#utility.yul\":1418:1472   */\n          and\n            /* \"#utility.yul\":1407:1472   */\n          swap1\n          pop\n            /* \"#utility.yul\":1352:1478   */\n          swap2\n          swap1\n          pop\n          jump\t// out\n            /* \"#utility.yul\":1484:1561   */\n        tag_28:\n            /* \"#utility.yul\":1521:1528   */\n          0x00\n            /* \"#utility.yul\":1550:1555   */\n          dup2\n            /* \"#utility.yul\":1539:1555   */\n          swap1\n          pop\n            /* \"#utility.yul\":1484:1561   */\n          swap2\n          swap1\n          pop\n          jump\t// out\n            /* \"#utility.yul\":1567:1747   */\n        tag_32:\n            /* \"#utility.yul\":1615:1692   */\n          0x4e487b7100000000000000000000000000000000000000000000000000000000\n            /* \"#utility.yul\":1612:1613   */\n          0x00\n            /* \"#utility.yul\":1605:1693   */\n          mstore\n            /* \"#utility.yul\":1712:1716   */\n          0x11\n            /* \"#utility.yul\":1709:1710   */\n          0x04\n            /* \"#utility.yul\":1702:1717   */\n          mstore\n            /* \"#utility.yul\":1736:1740   */\n          0x24\n            /* \"#utility.yul\":1733:1734   */\n          0x00\n            /* \"#utility.yul\":1726:1741   */\n          revert\n            /* \"#utility.yul\":1876:1993   */\n        tag_21:\n            /* \"#utility.yul\":1985:1986   */\n          0x00\n            /* \"#utility.yul\":1982:1983   */\n          dup1\n            /* \"#utility.yul\":1975:1987   */\n          revert\n            /* \"#utility.yul\":1999:2137   */\n        tag_13:\n            /* \"#utility.yul\":2080:2112   */\n          tag_44\n            /* \"#utility.yul\":2106:2111   */\n          dup2\n            /* \"#utility.yul\":2080:2112   */\n          tag_33\n          jump\t// in\n        tag_44:\n            /* \"#utility.yul\":2073:2078   */\n          dup2\n            /* \"#utility.yul\":2070:2113   */\n          eq\n            /* \"#utility.yul\":2060:2131   */\n          tag_45\n          jumpi\n            /* \"#utility.yul\":2127:2128   */\n          0x00\n            /* \"#utility.yul\":2124:2125   */\n          dup1\n            /* \"#utility.yul\":2117:2129   */\n          revert\n            /* \"#utility.yul\":2060:2131   */\n        tag_45:\n            /* \"#utility.yul\":1999:2137   */\n          pop\n          jump\t// out\n            /* \"#utility.yul\":2143:2265   */\n        tag_17:\n            /* \"#utility.yul\":2216:2240   */\n          tag_47\n            /* \"#utility.yul\":2234:2239   */\n          dup2\n            /* \"#utility.yul\":2216:2240   */\n          tag_28\n          jump\t// in\n        tag_47:\n            /* \"#utility.yul\":2209:2214   */\n          dup2\n            /* \"#utility.yul\":2206:2241   */\n          eq\n            /* \"#utility.yul\":2196:2259   */\n          tag_48\n          jumpi\n            /* \"#utility.yul\":2255:2256   */\n          0x00\n            /* \"#utility.yul\":2252:2253   */\n          dup1\n            /* \"#utility.yul\":2245:2257   */\n          revert\n            /* \"#utility.yul\":2196:2259   */\n        tag_48:\n            /* \"#utility.yul\":2143:2265   */\n          pop\n          jump\t// out\n            /* \"contracts/5_SimpleAuction.sol\":60:5086  contract SimpleAuction {... */\n        tag_8:\n          dataSize(sub_0)\n          dup1\n          dataOffset(sub_0)\n          0x00\n          codecopy\n          0x00\n          return\n        stop\n\n        sub_0: assembly {\n                /* \"contracts/5_SimpleAuction.sol\":60:5086  contract SimpleAuction {... */\n              mstore(0x40, 0x80)\n              jumpi(tag_1, lt(calldatasize, 0x04))\n              shr(0xe0, calldataload(0x00))\n              dup1\n              0x3ccfd60b\n              gt\n              tag_9\n              jumpi\n              dup1\n              0x3ccfd60b\n              eq\n              tag_5\n              jumpi\n              dup1\n              0x4b449cba\n              eq\n              tag_6\n              jumpi\n              dup1\n              0x91f90157\n              eq\n              tag_7\n              jumpi\n              dup1\n              0xd57bde79\n              eq\n              tag_8\n              jumpi\n              jump(tag_1)\n            tag_9:\n              dup1\n              0x1998aeef\n              eq\n              tag_2\n              jumpi\n              dup1\n              0x2a24f46c\n              eq\n              tag_3\n              jumpi\n              dup1\n              0x38af3eed\n              eq\n              tag_4\n              jumpi\n            tag_1:\n              0x00\n              dup1\n              revert\n                /* \"contracts/5_SimpleAuction.sol\":1833:3055  function bid() external payable {... */\n            tag_2:\n              tag_10\n              tag_11\n              jump\t// in\n            tag_10:\n              stop\n                /* \"contracts/5_SimpleAuction.sol\":3991:5084  function auctionEnd() external {... */\n            tag_3:\n              callvalue\n              dup1\n              iszero\n              tag_12\n              jumpi\n              0x00\n              dup1\n              revert\n            tag_12:\n              pop\n              tag_13\n              tag_14\n              jump\t// in\n            tag_13:\n              stop\n                /* \"contracts/5_SimpleAuction.sol\":234:268  address payable public beneficiary */\n            tag_4:\n              callvalue\n              dup1\n              iszero\n              tag_15\n              jumpi\n              0x00\n              dup1\n              revert\n            tag_15:\n              pop\n              tag_16\n              tag_17\n              jump\t// in\n            tag_16:\n              mload(0x40)\n              tag_18\n              swap2\n              swap1\n              tag_19\n              jump\t// in\n            tag_18:\n              mload(0x40)\n              dup1\n              swap2\n              sub\n              swap1\n              return\n                /* \"contracts/5_SimpleAuction.sol\":3102:3908  function withdraw() external returns (bool) {... */\n            tag_5:\n              callvalue\n              dup1\n              iszero\n              tag_20\n              jumpi\n              0x00\n              dup1\n              revert\n            tag_20:\n              pop\n              tag_21\n              tag_22\n              jump\t// in\n            tag_21:\n              mload(0x40)\n              tag_23\n              swap2\n              swap1\n              tag_24\n              jump\t// in\n            tag_23:\n              mload(0x40)\n              dup1\n              swap2\n              sub\n              swap1\n              return\n                /* \"contracts/5_SimpleAuction.sol\":274:300  uint public auctionEndTime */\n            tag_6:\n              callvalue\n              dup1\n              iszero\n              tag_25\n              jumpi\n              0x00\n              dup1\n              revert\n            tag_25:\n              pop\n              tag_26\n              tag_27\n              jump\t// in\n            tag_26:\n              mload(0x40)\n              tag_28\n              swap2\n              swap1\n              tag_29\n              jump\t// in\n            tag_28:\n              mload(0x40)\n              dup1\n              swap2\n              sub\n              swap1\n              return\n                /* \"contracts/5_SimpleAuction.sol\":344:372  address public highestBidder */\n            tag_7:\n              callvalue\n              dup1\n              iszero\n              tag_30\n              jumpi\n              0x00\n              dup1\n              revert\n            tag_30:\n              pop\n              tag_31\n              tag_32\n              jump\t// in\n            tag_31:\n              mload(0x40)\n              tag_33\n              swap2\n              swap1\n              tag_34\n              jump\t// in\n            tag_33:\n              mload(0x40)\n              dup1\n              swap2\n              sub\n              swap1\n              return\n                /* \"contracts/5_SimpleAuction.sol\":378:400  uint public highestBid */\n            tag_8:\n              callvalue\n              dup1\n              iszero\n              tag_35\n              jumpi\n              0x00\n              dup1\n              revert\n            tag_35:\n              pop\n              tag_36\n              tag_37\n              jump\t// in\n            tag_36:\n              mload(0x40)\n              tag_38\n              swap2\n              swap1\n              tag_29\n              jump\t// in\n            tag_38:\n              mload(0x40)\n              dup1\n              swap2\n              sub\n              swap1\n              return\n                /* \"contracts/5_SimpleAuction.sol\":1833:3055  function bid() external payable {... */\n            tag_11:\n                /* \"contracts/5_SimpleAuction.sol\":2180:2194  auctionEndTime */\n              sload(0x01)\n                /* \"contracts/5_SimpleAuction.sol\":2162:2177  block.timestamp */\n              timestamp\n                /* \"contracts/5_SimpleAuction.sol\":2162:2194  block.timestamp > auctionEndTime */\n              gt\n                /* \"contracts/5_SimpleAuction.sol\":2158:2236  if (block.timestamp > auctionEndTime)... */\n              iszero\n              tag_40\n              jumpi\n                /* \"contracts/5_SimpleAuction.sol\":2215:2236  AuctionAlreadyEnded() */\n              mload(0x40)\n              0xd02e774d00000000000000000000000000000000000000000000000000000000\n              dup2\n              mstore\n              0x04\n              add\n              mload(0x40)\n              dup1\n              swap2\n              sub\n              swap1\n              revert\n                /* \"contracts/5_SimpleAuction.sol\":2158:2236  if (block.timestamp > auctionEndTime)... */\n            tag_40:\n                /* \"contracts/5_SimpleAuction.sol\":2479:2489  highestBid */\n              sload(0x03)\n                /* \"contracts/5_SimpleAuction.sol\":2466:2475  msg.value */\n              callvalue\n                /* \"contracts/5_SimpleAuction.sol\":2466:2489  msg.value <= highestBid */\n              gt\n                /* \"contracts/5_SimpleAuction.sol\":2462:2538  if (msg.value <= highestBid)... */\n              tag_41\n              jumpi\n                /* \"contracts/5_SimpleAuction.sol\":2527:2537  highestBid */\n              sload(0x03)\n                /* \"contracts/5_SimpleAuction.sol\":2510:2538  BidNotHighEnough(highestBid) */\n              mload(0x40)\n              0x4e12c1bb00000000000000000000000000000000000000000000000000000000\n              dup2\n              mstore\n              0x04\n              add\n              tag_42\n              swap2\n              swap1\n              tag_29\n              jump\t// in\n            tag_42:\n              mload(0x40)\n              dup1\n              swap2\n              sub\n              swap1\n              revert\n                /* \"contracts/5_SimpleAuction.sol\":2462:2538  if (msg.value <= highestBid)... */\n            tag_41:\n                /* \"contracts/5_SimpleAuction.sol\":2567:2568  0 */\n              0x00\n                /* \"contracts/5_SimpleAuction.sol\":2553:2563  highestBid */\n              sload(0x03)\n                /* \"contracts/5_SimpleAuction.sol\":2553:2568  highestBid != 0 */\n              eq\n                /* \"contracts/5_SimpleAuction.sol\":2549:2924  if (highestBid != 0) {... */\n              tag_43\n              jumpi\n                /* \"contracts/5_SimpleAuction.sol\":2903:2913  highestBid */\n              sload(0x03)\n                /* \"contracts/5_SimpleAuction.sol\":2870:2884  pendingReturns */\n              0x04\n                /* \"contracts/5_SimpleAuction.sol\":2870:2899  pendingReturns[highestBidder] */\n              0x00\n                /* \"contracts/5_SimpleAuction.sol\":2885:2898  highestBidder */\n              0x02\n              0x00\n              swap1\n              sload\n              swap1\n              0x0100\n              exp\n              swap1\n              div\n              0xffffffffffffffffffffffffffffffffffffffff\n              and\n                /* \"contracts/5_SimpleAuction.sol\":2870:2899  pendingReturns[highestBidder] */\n              0xffffffffffffffffffffffffffffffffffffffff\n              and\n              0xffffffffffffffffffffffffffffffffffffffff\n              and\n              dup2\n              mstore\n              0x20\n              add\n              swap1\n              dup2\n              mstore\n              0x20\n              add\n              0x00\n              keccak256\n              0x00\n                /* \"contracts/5_SimpleAuction.sol\":2870:2913  pendingReturns[highestBidder] += highestBid */\n              dup3\n              dup3\n              sload\n              tag_44\n              swap2\n              swap1\n              tag_45\n              jump\t// in\n            tag_44:\n              swap3\n              pop\n              pop\n              dup2\n              swap1\n              sstore\n              pop\n                /* \"contracts/5_SimpleAuction.sol\":2549:2924  if (highestBid != 0) {... */\n            tag_43:\n                /* \"contracts/5_SimpleAuction.sol\":2949:2959  msg.sender */\n              caller\n                /* \"contracts/5_SimpleAuction.sol\":2933:2946  highestBidder */\n              0x02\n              0x00\n                /* \"contracts/5_SimpleAuction.sol\":2933:2959  highestBidder = msg.sender */\n              0x0100\n              exp\n              dup2\n              sload\n              dup2\n              0xffffffffffffffffffffffffffffffffffffffff\n              mul\n              not\n              and\n              swap1\n              dup4\n              0xffffffffffffffffffffffffffffffffffffffff\n              and\n              mul\n              or\n              swap1\n              sstore\n              pop\n                /* \"contracts/5_SimpleAuction.sol\":2982:2991  msg.value */\n              callvalue\n                /* \"contracts/5_SimpleAuction.sol\":2969:2979  highestBid */\n              0x03\n                /* \"contracts/5_SimpleAuction.sol\":2969:2991  highestBid = msg.value */\n              dup2\n              swap1\n              sstore\n              pop\n                /* \"contracts/5_SimpleAuction.sol\":3006:3048  HighestBidIncreased(msg.sender, msg.value) */\n              0xf4757a49b326036464bec6fe419a4ae38c8a02ce3e68bf0809674f6aab8ad300\n                /* \"contracts/5_SimpleAuction.sol\":3026:3036  msg.sender */\n              caller\n                /* \"contracts/5_SimpleAuction.sol\":3038:3047  msg.value */\n              callvalue\n                /* \"contracts/5_SimpleAuction.sol\":3006:3048  HighestBidIncreased(msg.sender, msg.value) */\n              mload(0x40)\n              tag_46\n              swap3\n              swap2\n              swap1\n              tag_47\n              jump\t// in\n            tag_46:\n              mload(0x40)\n              dup1\n              swap2\n              sub\n              swap1\n              log1\n                /* \"contracts/5_SimpleAuction.sol\":1833:3055  function bid() external payable {... */\n              jump\t// out\n                /* \"contracts/5_SimpleAuction.sol\":3991:5084  function auctionEnd() external {... */\n            tag_14:\n                /* \"contracts/5_SimpleAuction.sol\":4789:4803  auctionEndTime */\n              sload(0x01)\n                /* \"contracts/5_SimpleAuction.sol\":4771:4786  block.timestamp */\n              timestamp\n                /* \"contracts/5_SimpleAuction.sol\":4771:4803  block.timestamp < auctionEndTime */\n              lt\n                /* \"contracts/5_SimpleAuction.sol\":4767:4844  if (block.timestamp < auctionEndTime)... */\n              iszero\n              tag_49\n              jumpi\n                /* \"contracts/5_SimpleAuction.sol\":4824:4844  AuctionNotYetEnded() */\n              mload(0x40)\n              0x44cee29000000000000000000000000000000000000000000000000000000000\n              dup2\n              mstore\n              0x04\n              add\n              mload(0x40)\n              dup1\n              swap2\n              sub\n              swap1\n              revert\n                /* \"contracts/5_SimpleAuction.sol\":4767:4844  if (block.timestamp < auctionEndTime)... */\n            tag_49:\n                /* \"contracts/5_SimpleAuction.sol\":4858:4863  ended */\n              0x05\n              0x00\n              swap1\n              sload\n              swap1\n              0x0100\n              exp\n              swap1\n              div\n              0xff\n              and\n                /* \"contracts/5_SimpleAuction.sol\":4854:4909  if (ended)... */\n              iszero\n              tag_50\n              jumpi\n                /* \"contracts/5_SimpleAuction.sol\":4884:4909  AuctionEndAlreadyCalled() */\n              mload(0x40)\n              0x61cfdcf800000000000000000000000000000000000000000000000000000000\n              dup2\n              mstore\n              0x04\n              add\n              mload(0x40)\n              dup1\n              swap2\n              sub\n              swap1\n              revert\n                /* \"contracts/5_SimpleAuction.sol\":4854:4909  if (ended)... */\n            tag_50:\n                /* \"contracts/5_SimpleAuction.sol\":4950:4954  true */\n              0x01\n                /* \"contracts/5_SimpleAuction.sol\":4942:4947  ended */\n              0x05\n              0x00\n                /* \"contracts/5_SimpleAuction.sol\":4942:4954  ended = true */\n              0x0100\n              exp\n              dup2\n              sload\n              dup2\n              0xff\n              mul\n              not\n              and\n              swap1\n              dup4\n              iszero\n              iszero\n              mul\n              or\n              swap1\n              sstore\n              pop\n                /* \"contracts/5_SimpleAuction.sol\":4969:5008  AuctionEnded(highestBidder, highestBid) */\n              0xdaec4582d5d9595688c8c98545fdd1c696d41c6aeaeb636737e84ed2f5c00eda\n                /* \"contracts/5_SimpleAuction.sol\":4982:4995  highestBidder */\n              0x02\n              0x00\n              swap1\n              sload\n              swap1\n              0x0100\n              exp\n              swap1\n              div\n              0xffffffffffffffffffffffffffffffffffffffff\n              and\n                /* \"contracts/5_SimpleAuction.sol\":4997:5007  highestBid */\n              sload(0x03)\n                /* \"contracts/5_SimpleAuction.sol\":4969:5008  AuctionEnded(highestBidder, highestBid) */\n              mload(0x40)\n              tag_51\n              swap3\n              swap2\n              swap1\n              tag_47\n              jump\t// in\n            tag_51:\n              mload(0x40)\n              dup1\n              swap2\n              sub\n              swap1\n              log1\n                /* \"contracts/5_SimpleAuction.sol\":5045:5056  beneficiary */\n              0x00\n              dup1\n              sload\n              swap1\n              0x0100\n              exp\n              swap1\n              div\n              0xffffffffffffffffffffffffffffffffffffffff\n              and\n                /* \"contracts/5_SimpleAuction.sol\":5045:5065  beneficiary.transfer */\n              0xffffffffffffffffffffffffffffffffffffffff\n              and\n                /* \"contracts/5_SimpleAuction.sol\":5045:5077  beneficiary.transfer(highestBid) */\n              0x08fc\n                /* \"contracts/5_SimpleAuction.sol\":5066:5076  highestBid */\n              sload(0x03)\n                /* \"contracts/5_SimpleAuction.sol\":5045:5077  beneficiary.transfer(highestBid) */\n              swap1\n              dup2\n              iszero\n              mul\n              swap1\n              mload(0x40)\n              0x00\n              mload(0x40)\n              dup1\n              dup4\n              sub\n              dup2\n              dup6\n              dup9\n              dup9\n              call\n              swap4\n              pop\n              pop\n              pop\n              pop\n              iszero\n              dup1\n              iszero\n              tag_53\n              jumpi\n              returndatasize\n              0x00\n              dup1\n              returndatacopy\n              revert(0x00, returndatasize)\n            tag_53:\n              pop\n                /* \"contracts/5_SimpleAuction.sol\":3991:5084  function auctionEnd() external {... */\n              jump\t// out\n                /* \"contracts/5_SimpleAuction.sol\":234:268  address payable public beneficiary */\n            tag_17:\n              0x00\n              dup1\n              sload\n              swap1\n              0x0100\n              exp\n              swap1\n              div\n              0xffffffffffffffffffffffffffffffffffffffff\n              and\n              dup2\n              jump\t// out\n                /* \"contracts/5_SimpleAuction.sol\":3102:3908  function withdraw() external returns (bool) {... */\n            tag_22:\n                /* \"contracts/5_SimpleAuction.sol\":3140:3144  bool */\n              0x00\n                /* \"contracts/5_SimpleAuction.sol\":3156:3167  uint amount */\n              dup1\n                /* \"contracts/5_SimpleAuction.sol\":3170:3184  pendingReturns */\n              0x04\n                /* \"contracts/5_SimpleAuction.sol\":3170:3196  pendingReturns[msg.sender] */\n              0x00\n                /* \"contracts/5_SimpleAuction.sol\":3185:3195  msg.sender */\n              caller\n                /* \"contracts/5_SimpleAuction.sol\":3170:3196  pendingReturns[msg.sender] */\n              0xffffffffffffffffffffffffffffffffffffffff\n              and\n              0xffffffffffffffffffffffffffffffffffffffff\n              and\n              dup2\n              mstore\n              0x20\n              add\n              swap1\n              dup2\n              mstore\n              0x20\n              add\n              0x00\n              keccak256\n              sload\n                /* \"contracts/5_SimpleAuction.sol\":3156:3196  uint amount = pendingReturns[msg.sender] */\n              swap1\n              pop\n                /* \"contracts/5_SimpleAuction.sol\":3219:3220  0 */\n              0x00\n                /* \"contracts/5_SimpleAuction.sol\":3210:3216  amount */\n              dup2\n                /* \"contracts/5_SimpleAuction.sol\":3210:3220  amount > 0 */\n              gt\n                /* \"contracts/5_SimpleAuction.sol\":3206:3881  if (amount > 0) {... */\n              iszero\n              tag_55\n              jumpi\n                /* \"contracts/5_SimpleAuction.sol\":3450:3451  0 */\n              0x00\n                /* \"contracts/5_SimpleAuction.sol\":3421:3435  pendingReturns */\n              0x04\n                /* \"contracts/5_SimpleAuction.sol\":3421:3447  pendingReturns[msg.sender] */\n              0x00\n                /* \"contracts/5_SimpleAuction.sol\":3436:3446  msg.sender */\n              caller\n                /* \"contracts/5_SimpleAuction.sol\":3421:3447  pendingReturns[msg.sender] */\n              0xffffffffffffffffffffffffffffffffffffffff\n              and\n              0xffffffffffffffffffffffffffffffffffffffff\n              and\n              dup2\n              mstore\n              0x20\n              add\n              swap1\n              dup2\n              mstore\n              0x20\n              add\n              0x00\n              keccak256\n                /* \"contracts/5_SimpleAuction.sol\":3421:3451  pendingReturns[msg.sender] = 0 */\n              dup2\n              swap1\n              sstore\n              pop\n                /* \"contracts/5_SimpleAuction.sol\":3672:3682  msg.sender */\n              caller\n                /* \"contracts/5_SimpleAuction.sol\":3664:3688  payable(msg.sender).send */\n              0xffffffffffffffffffffffffffffffffffffffff\n              and\n                /* \"contracts/5_SimpleAuction.sol\":3664:3696  payable(msg.sender).send(amount) */\n              0x08fc\n                /* \"contracts/5_SimpleAuction.sol\":3689:3695  amount */\n              dup3\n                /* \"contracts/5_SimpleAuction.sol\":3664:3696  payable(msg.sender).send(amount) */\n              swap1\n              dup2\n              iszero\n              mul\n              swap1\n              mload(0x40)\n              0x00\n              mload(0x40)\n              dup1\n              dup4\n              sub\n              dup2\n              dup6\n              dup9\n              dup9\n              call\n              swap4\n              pop\n              pop\n              pop\n              pop\n                /* \"contracts/5_SimpleAuction.sol\":3659:3871  if (!payable(msg.sender).send(amount)) {... */\n              tag_57\n              jumpi\n                /* \"contracts/5_SimpleAuction.sol\":3820:3826  amount */\n              dup1\n                /* \"contracts/5_SimpleAuction.sol\":3791:3805  pendingReturns */\n              0x04\n                /* \"contracts/5_SimpleAuction.sol\":3791:3817  pendingReturns[msg.sender] */\n              0x00\n                /* \"contracts/5_SimpleAuction.sol\":3806:3816  msg.sender */\n              caller\n                /* \"contracts/5_SimpleAuction.sol\":3791:3817  pendingReturns[msg.sender] */\n              0xffffffffffffffffffffffffffffffffffffffff\n              and\n              0xffffffffffffffffffffffffffffffffffffffff\n              and\n              dup2\n              mstore\n              0x20\n              add\n              swap1\n              dup2\n              mstore\n              0x20\n              add\n              0x00\n              keccak256\n                /* \"contracts/5_SimpleAuction.sol\":3791:3826  pendingReturns[msg.sender] = amount */\n              dup2\n              swap1\n              sstore\n              pop\n                /* \"contracts/5_SimpleAuction.sol\":3851:3856  false */\n              0x00\n                /* \"contracts/5_SimpleAuction.sol\":3844:3856  return false */\n              swap2\n              pop\n              pop\n              jump(tag_54)\n                /* \"contracts/5_SimpleAuction.sol\":3659:3871  if (!payable(msg.sender).send(amount)) {... */\n            tag_57:\n                /* \"contracts/5_SimpleAuction.sol\":3206:3881  if (amount > 0) {... */\n            tag_55:\n                /* \"contracts/5_SimpleAuction.sol\":3897:3901  true */\n              0x01\n                /* \"contracts/5_SimpleAuction.sol\":3890:3901  return true */\n              swap2\n              pop\n              pop\n                /* \"contracts/5_SimpleAuction.sol\":3102:3908  function withdraw() external returns (bool) {... */\n            tag_54:\n              swap1\n              jump\t// out\n                /* \"contracts/5_SimpleAuction.sol\":274:300  uint public auctionEndTime */\n            tag_27:\n              sload(0x01)\n              dup2\n              jump\t// out\n                /* \"contracts/5_SimpleAuction.sol\":344:372  address public highestBidder */\n            tag_32:\n              0x02\n              0x00\n              swap1\n              sload\n              swap1\n              0x0100\n              exp\n              swap1\n              div\n              0xffffffffffffffffffffffffffffffffffffffff\n              and\n              dup2\n              jump\t// out\n                /* \"contracts/5_SimpleAuction.sol\":378:400  uint public highestBid */\n            tag_37:\n              sload(0x03)\n              dup2\n              jump\t// out\n                /* \"#utility.yul\":7:149   */\n            tag_59:\n                /* \"#utility.yul\":110:142   */\n              tag_61\n                /* \"#utility.yul\":136:141   */\n              dup2\n                /* \"#utility.yul\":110:142   */\n              tag_62\n              jump\t// in\n            tag_61:\n                /* \"#utility.yul\":105:108   */\n              dup3\n                /* \"#utility.yul\":98:143   */\n              mstore\n                /* \"#utility.yul\":7:149   */\n              pop\n              pop\n              jump\t// out\n                /* \"#utility.yul\":155:273   */\n            tag_63:\n                /* \"#utility.yul\":242:266   */\n              tag_65\n                /* \"#utility.yul\":260:265   */\n              dup2\n                /* \"#utility.yul\":242:266   */\n              tag_66\n              jump\t// in\n            tag_65:\n                /* \"#utility.yul\":237:240   */\n              dup3\n                /* \"#utility.yul\":230:267   */\n              mstore\n                /* \"#utility.yul\":155:273   */\n              pop\n              pop\n              jump\t// out\n                /* \"#utility.yul\":279:388   */\n            tag_67:\n                /* \"#utility.yul\":360:381   */\n              tag_69\n                /* \"#utility.yul\":375:380   */\n              dup2\n                /* \"#utility.yul\":360:381   */\n              tag_70\n              jump\t// in\n            tag_69:\n                /* \"#utility.yul\":355:358   */\n              dup3\n                /* \"#utility.yul\":348:382   */\n              mstore\n                /* \"#utility.yul\":279:388   */\n              pop\n              pop\n              jump\t// out\n                /* \"#utility.yul\":394:512   */\n            tag_71:\n                /* \"#utility.yul\":481:505   */\n              tag_73\n                /* \"#utility.yul\":499:504   */\n              dup2\n                /* \"#utility.yul\":481:505   */\n              tag_74\n              jump\t// in\n            tag_73:\n                /* \"#utility.yul\":476:479   */\n              dup3\n                /* \"#utility.yul\":469:506   */\n              mstore\n                /* \"#utility.yul\":394:512   */\n              pop\n              pop\n              jump\t// out\n                /* \"#utility.yul\":518:740   */\n            tag_34:\n                /* \"#utility.yul\":611:615   */\n              0x00\n                /* \"#utility.yul\":649:651   */\n              0x20\n                /* \"#utility.yul\":638:647   */\n              dup3\n                /* \"#utility.yul\":634:652   */\n              add\n                /* \"#utility.yul\":626:652   */\n              swap1\n              pop\n                /* \"#utility.yul\":662:733   */\n              tag_76\n                /* \"#utility.yul\":730:731   */\n              0x00\n                /* \"#utility.yul\":719:728   */\n              dup4\n                /* \"#utility.yul\":715:732   */\n              add\n                /* \"#utility.yul\":706:712   */\n              dup5\n                /* \"#utility.yul\":662:733   */\n              tag_63\n              jump\t// in\n            tag_76:\n                /* \"#utility.yul\":518:740   */\n              swap3\n              swap2\n              pop\n              pop\n              jump\t// out\n                /* \"#utility.yul\":746:1000   */\n            tag_19:\n                /* \"#utility.yul\":855:859   */\n              0x00\n                /* \"#utility.yul\":893:895   */\n              0x20\n                /* \"#utility.yul\":882:891   */\n              dup3\n                /* \"#utility.yul\":878:896   */\n              add\n                /* \"#utility.yul\":870:896   */\n              swap1\n              pop\n                /* \"#utility.yul\":906:993   */\n              tag_78\n                /* \"#utility.yul\":990:991   */\n              0x00\n                /* \"#utility.yul\":979:988   */\n              dup4\n                /* \"#utility.yul\":975:992   */\n              add\n                /* \"#utility.yul\":966:972   */\n              dup5\n                /* \"#utility.yul\":906:993   */\n              tag_59\n              jump\t// in\n            tag_78:\n                /* \"#utility.yul\":746:1000   */\n              swap3\n              swap2\n              pop\n              pop\n              jump\t// out\n                /* \"#utility.yul\":1006:1338   */\n            tag_47:\n                /* \"#utility.yul\":1127:1131   */\n              0x00\n                /* \"#utility.yul\":1165:1167   */\n              0x40\n                /* \"#utility.yul\":1154:1163   */\n              dup3\n                /* \"#utility.yul\":1150:1168   */\n              add\n                /* \"#utility.yul\":1142:1168   */\n              swap1\n              pop\n                /* \"#utility.yul\":1178:1249   */\n              tag_80\n                /* \"#utility.yul\":1246:1247   */\n              0x00\n                /* \"#utility.yul\":1235:1244   */\n              dup4\n                /* \"#utility.yul\":1231:1248   */\n              add\n                /* \"#utility.yul\":1222:1228   */\n              dup6\n                /* \"#utility.yul\":1178:1249   */\n              tag_63\n              jump\t// in\n            tag_80:\n                /* \"#utility.yul\":1259:1331   */\n              tag_81\n                /* \"#utility.yul\":1327:1329   */\n              0x20\n                /* \"#utility.yul\":1316:1325   */\n              dup4\n                /* \"#utility.yul\":1312:1330   */\n              add\n                /* \"#utility.yul\":1303:1309   */\n              dup5\n                /* \"#utility.yul\":1259:1331   */\n              tag_71\n              jump\t// in\n            tag_81:\n                /* \"#utility.yul\":1006:1338   */\n              swap4\n              swap3\n              pop\n              pop\n              pop\n              jump\t// out\n                /* \"#utility.yul\":1344:1554   */\n            tag_24:\n                /* \"#utility.yul\":1431:1435   */\n              0x00\n                /* \"#utility.yul\":1469:1471   */\n              0x20\n                /* \"#utility.yul\":1458:1467   */\n              dup3\n                /* \"#utility.yul\":1454:1472   */\n              add\n                /* \"#utility.yul\":1446:1472   */\n              swap1\n              pop\n                /* \"#utility.yul\":1482:1547   */\n              tag_83\n                /* \"#utility.yul\":1544:1545   */\n              0x00\n                /* \"#utility.yul\":1533:1542   */\n              dup4\n                /* \"#utility.yul\":1529:1546   */\n              add\n                /* \"#utility.yul\":1520:1526   */\n              dup5\n                /* \"#utility.yul\":1482:1547   */\n              tag_67\n              jump\t// in\n            tag_83:\n                /* \"#utility.yul\":1344:1554   */\n              swap3\n              swap2\n              pop\n              pop\n              jump\t// out\n                /* \"#utility.yul\":1560:1782   */\n            tag_29:\n                /* \"#utility.yul\":1653:1657   */\n              0x00\n                /* \"#utility.yul\":1691:1693   */\n              0x20\n                /* \"#utility.yul\":1680:1689   */\n              dup3\n                /* \"#utility.yul\":1676:1694   */\n              add\n                /* \"#utility.yul\":1668:1694   */\n              swap1\n              pop\n                /* \"#utility.yul\":1704:1775   */\n              tag_85\n                /* \"#utility.yul\":1772:1773   */\n              0x00\n                /* \"#utility.yul\":1761:1770   */\n              dup4\n                /* \"#utility.yul\":1757:1774   */\n              add\n                /* \"#utility.yul\":1748:1754   */\n              dup5\n                /* \"#utility.yul\":1704:1775   */\n              tag_71\n              jump\t// in\n            tag_85:\n                /* \"#utility.yul\":1560:1782   */\n              swap3\n              swap2\n              pop\n              pop\n              jump\t// out\n                /* \"#utility.yul\":1788:2093   */\n            tag_45:\n                /* \"#utility.yul\":1828:1831   */\n              0x00\n                /* \"#utility.yul\":1847:1867   */\n              tag_87\n                /* \"#utility.yul\":1865:1866   */\n              dup3\n                /* \"#utility.yul\":1847:1867   */\n              tag_74\n              jump\t// in\n            tag_87:\n                /* \"#utility.yul\":1842:1867   */\n              swap2\n              pop\n                /* \"#utility.yul\":1881:1901   */\n              tag_88\n                /* \"#utility.yul\":1899:1900   */\n              dup4\n                /* \"#utility.yul\":1881:1901   */\n              tag_74\n              jump\t// in\n            tag_88:\n                /* \"#utility.yul\":1876:1901   */\n              swap3\n              pop\n                /* \"#utility.yul\":2035:2036   */\n              dup3\n                /* \"#utility.yul\":1967:2033   */\n              0xffffffffffffffffffffffffffffffffffffffffffffffffffffffffffffffff\n                /* \"#utility.yul\":1963:2037   */\n              sub\n                /* \"#utility.yul\":1960:1961   */\n              dup3\n                /* \"#utility.yul\":1957:2038   */\n              gt\n                /* \"#utility.yul\":1954:2061   */\n              iszero\n              tag_89\n              jumpi\n                /* \"#utility.yul\":2041:2059   */\n              tag_90\n              tag_91\n              jump\t// in\n            tag_90:\n                /* \"#utility.yul\":1954:2061   */\n            tag_89:\n                /* \"#utility.yul\":2085:2086   */\n              dup3\n                /* \"#utility.yul\":2082:2083   */\n              dup3\n                /* \"#utility.yul\":2078:2087   */\n              add\n                /* \"#utility.yul\":2071:2087   */\n              swap1\n              pop\n                /* \"#utility.yul\":1788:2093   */\n              swap3\n              swap2\n              pop\n              pop\n              jump\t// out\n                /* \"#utility.yul\":2099:2195   */\n            tag_66:\n                /* \"#utility.yul\":2136:2143   */\n              0x00\n                /* \"#utility.yul\":2165:2189   */\n              tag_93\n                /* \"#utility.yul\":2183:2188   */\n              dup3\n                /* \"#utility.yul\":2165:2189   */\n              tag_94\n              jump\t// in\n            tag_93:\n                /* \"#utility.yul\":2154:2189   */\n              swap1\n              pop\n                /* \"#utility.yul\":2099:2195   */\n              swap2\n              swap1\n              pop\n              jump\t// out\n                /* \"#utility.yul\":2201:2305   */\n            tag_62:\n                /* \"#utility.yul\":2246:2253   */\n              0x00\n                /* \"#utility.yul\":2275:2299   */\n              tag_96\n                /* \"#utility.yul\":2293:2298   */\n              dup3\n                /* \"#utility.yul\":2275:2299   */\n              tag_94\n              jump\t// in\n            tag_96:\n                /* \"#utility.yul\":2264:2299   */\n              swap1\n              pop\n                /* \"#utility.yul\":2201:2305   */\n              swap2\n              swap1\n              pop\n              jump\t// out\n                /* \"#utility.yul\":2311:2401   */\n            tag_70:\n                /* \"#utility.yul\":2345:2352   */\n              0x00\n                /* \"#utility.yul\":2388:2393   */\n              dup2\n                /* \"#utility.yul\":2381:2394   */\n              iszero\n                /* \"#utility.yul\":2374:2395   */\n              iszero\n                /* \"#utility.yul\":2363:2395   */\n              swap1\n              pop\n                /* \"#utility.yul\":2311:2401   */\n              swap2\n              swap1\n              pop\n              jump\t// out\n                /* \"#utility.yul\":2407:2533   */\n            tag_94:\n                /* \"#utility.yul\":2444:2451   */\n              0x00\n                /* \"#utility.yul\":2484:2526   */\n              0xffffffffffffffffffffffffffffffffffffffff\n                /* \"#utility.yul\":2477:2482   */\n              dup3\n                /* \"#utility.yul\":2473:2527   */\n              and\n                /* \"#utility.yul\":2462:2527   */\n              swap1\n              pop\n                /* \"#utility.yul\":2407:2533   */\n              swap2\n              swap1\n              pop\n              jump\t// out\n                /* \"#utility.yul\":2539:2616   */\n            tag_74:\n                /* \"#utility.yul\":2576:2583   */\n              0x00\n                /* \"#utility.yul\":2605:2610   */\n              dup2\n                /* \"#utility.yul\":2594:2610   */\n              swap1\n              pop\n                /* \"#utility.yul\":2539:2616   */\n              swap2\n              swap1\n              pop\n              jump\t// out\n                /* \"#utility.yul\":2622:2802   */\n            tag_91:\n                /* \"#utility.yul\":2670:2747   */\n              0x4e487b7100000000000000000000000000000000000000000000000000000000\n                /* \"#utility.yul\":2667:2668   */\n              0x00\n                /* \"#utility.yul\":2660:2748   */\n              mstore\n                /* \"#utility.yul\":2767:2771   */\n              0x11\n                /* \"#utility.yul\":2764:2765   */\n              0x04\n                /* \"#utility.yul\":2757:2772   */\n              mstore\n                /* \"#utility.yul\":2791:2795   */\n              0x24\n                /* \"#utility.yul\":2788:2789   */\n              0x00\n                /* \"#utility.yul\":2781:2796   */\n              revert\n\n            auxdata: 0xa26469706673582212208a4b24e908fe727762692d2da4ca52f823b956671d86bcfdb8598839bc407a9b64736f6c63430008070033\n        }\n    }\n\n    auxdata: 0xa2646970667358221220f744dfb24d2ecc0ef791a15e572799f903f7c88a853759478a4dba2117a8599864736f6c63430008070033\n}\n",
				"bytecode": {
					"linkReferences": {
						"remix_tests.sol": {
							"Assert": [
								{
									"length": 20,
									"start": 428
								},
								{
									"length": 20,
									"start": 600
								},
								{
									"length": 20,
									"start": 842
								},
								{
									"length": 20,
									"start": 1141
								}
							]
						}
					},
					"object": "608060405234801561001057600080fd5b506112ec806100206000396000f3fe608060405234801561001057600080fd5b50600436106100365760003560e01c80637fea0d4b1461003b578063a335fe2914610045575b600080fd5b61004361004f565b005b61004d61018a565b005b33600360006101000a81548173ffffffffffffffffffffffffffffffffffffffff021916908373ffffffffffffffffffffffffffffffffffffffff16021790555060643360405161009f90610539565b6100aa929190610746565b604051809103906000f0801580156100c6573d6000803e3d6000fd5b50600160006101000a81548173ffffffffffffffffffffffffffffffffffffffff021916908373ffffffffffffffffffffffffffffffffffffffff160217905550600160009054906101000a900473ffffffffffffffffffffffffffffffffffffffff1673ffffffffffffffffffffffffffffffffffffffff16600460006101000a81548173ffffffffffffffffffffffffffffffffffffffff021916908373ffffffffffffffffffffffffffffffffffffffff160217905550600a600281905550565b73__$acbfb1c35000d78352310b16a054a6b106$__63bfba5dd633600360009054906101000a900473ffffffffffffffffffffffffffffffffffffffff166040518363ffffffff1660e01b81526004016101e592919061070a565b60206040518083038186803b1580156101fd57600080fd5b505af4158015610211573d6000803e3d6000fd5b505050506040513d601f19601f820116820180604052508101906102359190610570565b5073__$acbfb1c35000d78352310b16a054a6b106$__63bfba5dd6600460009054906101000a900473ffffffffffffffffffffffffffffffffffffffff16600160009054906101000a900473ffffffffffffffffffffffffffffffffffffffff1673ffffffffffffffffffffffffffffffffffffffff166040518363ffffffff1660e01b81526004016102c99291906106ce565b60206040518083038186803b1580156102e157600080fd5b505af41580156102f5573d6000803e3d6000fd5b505050506040513d601f19601f820116820180604052508101906103199190610570565b50600160009054906101000a90505073__$acbfb1c35000d78352310b16a054a6b106$__63abcd7960600160009054906101000a900473ffffffffffffffffffffffffffffffffffffffff1673ffffffffffffffffffffffffffffffffffffffff1663d57bde796040518163ffffffff1660e01b815260040160206040518083038186803b1580156103aa57600080fd5b505afa1580156103be573d6000803e3d6000fd5b505050506040513d601f19601f820116820180604052508101906103e2919061059d565b6002546040518363ffffffff1660e01b815260040161040292919061076f565b60206040518083038186803b15801561041a57600080fd5b505af415801561042e573d6000803e3d6000fd5b505050506040513d601f19601f820116820180604052508101906104529190610570565b5073__$acbfb1c35000d78352310b16a054a6b106$__63bfba5dd6600160009054906101000a900473ffffffffffffffffffffffffffffffffffffffff1673ffffffffffffffffffffffffffffffffffffffff16600360009054906101000a900473ffffffffffffffffffffffffffffffffffffffff166040518363ffffffff1660e01b81526004016104e6929190610692565b60206040518083038186803b1580156104fe57600080fd5b505af4158015610512573d6000803e3d6000fd5b505050506040513d601f19601f820116820180604052508101906105369190610570565b50565b6109b78061090083390190565b600081519050610555816108d1565b92915050565b60008151905061056a816108e8565b92915050565b60006020828403121561058657610585610828565b5b600061059484828501610546565b91505092915050565b6000602082840312156105b3576105b2610828565b5b60006105c18482850161055b565b91505092915050565b6105d3816107ce565b82525050565b6105e2816107bc565b82525050565b6105f181610816565b82525050565b60006106046019836107ab565b915061060f8261082d565b602082019050919050565b60006106276015836107ab565b915061063282610856565b602082019050919050565b600061064a6018836107ab565b91506106558261087f565b602082019050919050565b600061066d6015836107ab565b9150610678826108a8565b602082019050919050565b61068c8161080c565b82525050565b60006060820190506106a760008301856105d9565b6106b460208301846105d9565b81810360408301526106c58161061a565b90509392505050565b60006060820190506106e360008301856105d9565b6106f060208301846105d9565b81810360408301526107018161063d565b90509392505050565b600060608201905061071f60008301856105d9565b61072c60208301846105d9565b818103604083015261073d81610660565b90509392505050565b600060408201905061075b60008301856105e8565b61076860208301846105ca565b9392505050565b60006060820190506107846000830185610683565b6107916020830184610683565b81810360408301526107a2816105f7565b90509392505050565b600082825260208201905092915050565b60006107c7826107ec565b9050919050565b60006107d9826107ec565b9050919050565b60008115159050919050565b600073ffffffffffffffffffffffffffffffffffffffff82169050919050565b6000819050919050565b60006108218261080c565b9050919050565b600080fd5b7f6973206e6f742031302074686520686967686573742062696400000000000000600082015250565b7f6973206e6f742068696768657374206269646465720000000000000000000000600082015250565b7f41756374696f6e20636f6e747261637420616464726573730000000000000000600082015250565b7f5468697320636f6e747261637420616464726573730000000000000000000000600082015250565b6108da816107e0565b81146108e557600080fd5b50565b6108f18161080c565b81146108fc57600080fd5b5056fe608060405234801561001057600080fd5b506040516109b73803806109b7833981810160405281019061003291906100b5565b806000806101000a81548173ffffffffffffffffffffffffffffffffffffffff021916908373ffffffffffffffffffffffffffffffffffffffff160217905550814261007e91906100f5565b60018190555050506101e9565b60008151905061009a816101bb565b92915050565b6000815190506100af816101d2565b92915050565b600080604083850312156100cc576100cb6101b6565b5b60006100da858286016100a0565b92505060206100eb8582860161008b565b9150509250929050565b60006101008261017d565b915061010b8361017d565b9250827fffffffffffffffffffffffffffffffffffffffffffffffffffffffffffffffff038211156101405761013f610187565b5b828201905092915050565b60006101568261015d565b9050919050565b600073ffffffffffffffffffffffffffffffffffffffff82169050919050565b6000819050919050565b7f4e487b7100000000000000000000000000000000000000000000000000000000600052601160045260246000fd5b600080fd5b6101c48161014b565b81146101cf57600080fd5b50565b6101db8161017d565b81146101e657600080fd5b50565b6107bf806101f86000396000f3fe6080604052600436106100705760003560e01c80633ccfd60b1161004e5780633ccfd60b146100c15780634b449cba146100ec57806391f9015714610117578063d57bde791461014257610070565b80631998aeef146100755780632a24f46c1461007f57806338af3eed14610096575b600080fd5b61007d61016d565b005b34801561008b57600080fd5b506100946102f9565b005b3480156100a257600080fd5b506100ab61045f565b6040516100b89190610630565b60405180910390f35b3480156100cd57600080fd5b506100d6610483565b6040516100e39190610674565b60405180910390f35b3480156100f857600080fd5b506101016105a7565b60405161010e919061068f565b60405180910390f35b34801561012357600080fd5b5061012c6105ad565b6040516101399190610615565b60405180910390f35b34801561014e57600080fd5b506101576105d3565b604051610164919061068f565b60405180910390f35b6001544211156101a9576040517fd02e774d00000000000000000000000000000000000000000000000000000000815260040160405180910390fd5b60035434116101f1576003546040517f4e12c1bb0000000000000000000000000000000000000000000000000000000081526004016101e8919061068f565b60405180910390fd5b6000600354146102765760035460046000600260009054906101000a900473ffffffffffffffffffffffffffffffffffffffff1673ffffffffffffffffffffffffffffffffffffffff1673ffffffffffffffffffffffffffffffffffffffff168152602001908152602001600020600082825461026e91906106aa565b925050819055505b33600260006101000a81548173ffffffffffffffffffffffffffffffffffffffff021916908373ffffffffffffffffffffffffffffffffffffffff160217905550346003819055507ff4757a49b326036464bec6fe419a4ae38c8a02ce3e68bf0809674f6aab8ad30033346040516102ef92919061064b565b60405180910390a1565b600154421015610335576040517f44cee29000000000000000000000000000000000000000000000000000000000815260040160405180910390fd5b600560009054906101000a900460ff161561037c576040517f61cfdcf800000000000000000000000000000000000000000000000000000000815260040160405180910390fd5b6001600560006101000a81548160ff0219169083151502179055507fdaec4582d5d9595688c8c98545fdd1c696d41c6aeaeb636737e84ed2f5c00eda600260009054906101000a900473ffffffffffffffffffffffffffffffffffffffff166003546040516103ec92919061064b565b60405180910390a160008054906101000a900473ffffffffffffffffffffffffffffffffffffffff1673ffffffffffffffffffffffffffffffffffffffff166108fc6003549081150290604051600060405180830381858888f1935050505015801561045c573d6000803e3d6000fd5b50565b60008054906101000a900473ffffffffffffffffffffffffffffffffffffffff1681565b600080600460003373ffffffffffffffffffffffffffffffffffffffff1673ffffffffffffffffffffffffffffffffffffffff168152602001908152602001600020549050600081111561059e576000600460003373ffffffffffffffffffffffffffffffffffffffff1673ffffffffffffffffffffffffffffffffffffffff168152602001908152602001600020819055503373ffffffffffffffffffffffffffffffffffffffff166108fc829081150290604051600060405180830381858888f1935050505061059d5780600460003373ffffffffffffffffffffffffffffffffffffffff1673ffffffffffffffffffffffffffffffffffffffff1681526020019081526020016000208190555060009150506105a4565b5b60019150505b90565b60015481565b600260009054906101000a900473ffffffffffffffffffffffffffffffffffffffff1681565b60035481565b6105e281610712565b82525050565b6105f181610700565b82525050565b61060081610724565b82525050565b61060f81610750565b82525050565b600060208201905061062a60008301846105e8565b92915050565b600060208201905061064560008301846105d9565b92915050565b600060408201905061066060008301856105e8565b61066d6020830184610606565b9392505050565b600060208201905061068960008301846105f7565b92915050565b60006020820190506106a46000830184610606565b92915050565b60006106b582610750565b91506106c083610750565b9250827fffffffffffffffffffffffffffffffffffffffffffffffffffffffffffffffff038211156106f5576106f461075a565b5b828201905092915050565b600061070b82610730565b9050919050565b600061071d82610730565b9050919050565b60008115159050919050565b600073ffffffffffffffffffffffffffffffffffffffff82169050919050565b6000819050919050565b7f4e487b7100000000000000000000000000000000000000000000000000000000600052601160045260246000fdfea26469706673582212208a4b24e908fe727762692d2da4ca52f823b956671d86bcfdb8598839bc407a9b64736f6c63430008070033a2646970667358221220f744dfb24d2ecc0ef791a15e572799f903f7c88a853759478a4dba2117a8599864736f6c63430008070033",
					"opcodes": "PUSH1 0x80 PUSH1 0x40 MSTORE CALLVALUE DUP1 ISZERO PUSH2 0x10 JUMPI PUSH1 0x0 DUP1 REVERT JUMPDEST POP PUSH2 0x12EC DUP1 PUSH2 0x20 PUSH1 0x0 CODECOPY PUSH1 0x0 RETURN INVALID PUSH1 0x80 PUSH1 0x40 MSTORE CALLVALUE DUP1 ISZERO PUSH2 0x10 JUMPI PUSH1 0x0 DUP1 REVERT JUMPDEST POP PUSH1 0x4 CALLDATASIZE LT PUSH2 0x36 JUMPI PUSH1 0x0 CALLDATALOAD PUSH1 0xE0 SHR DUP1 PUSH4 0x7FEA0D4B EQ PUSH2 0x3B JUMPI DUP1 PUSH4 0xA335FE29 EQ PUSH2 0x45 JUMPI JUMPDEST PUSH1 0x0 DUP1 REVERT JUMPDEST PUSH2 0x43 PUSH2 0x4F JUMP JUMPDEST STOP JUMPDEST PUSH2 0x4D PUSH2 0x18A JUMP JUMPDEST STOP JUMPDEST CALLER PUSH1 0x3 PUSH1 0x0 PUSH2 0x100 EXP DUP2 SLOAD DUP2 PUSH20 0xFFFFFFFFFFFFFFFFFFFFFFFFFFFFFFFFFFFFFFFF MUL NOT AND SWAP1 DUP4 PUSH20 0xFFFFFFFFFFFFFFFFFFFFFFFFFFFFFFFFFFFFFFFF AND MUL OR SWAP1 SSTORE POP PUSH1 0x64 CALLER PUSH1 0x40 MLOAD PUSH2 0x9F SWAP1 PUSH2 0x539 JUMP JUMPDEST PUSH2 0xAA SWAP3 SWAP2 SWAP1 PUSH2 0x746 JUMP JUMPDEST PUSH1 0x40 MLOAD DUP1 SWAP2 SUB SWAP1 PUSH1 0x0 CREATE DUP1 ISZERO DUP1 ISZERO PUSH2 0xC6 JUMPI RETURNDATASIZE PUSH1 0x0 DUP1 RETURNDATACOPY RETURNDATASIZE PUSH1 0x0 REVERT JUMPDEST POP PUSH1 0x1 PUSH1 0x0 PUSH2 0x100 EXP DUP2 SLOAD DUP2 PUSH20 0xFFFFFFFFFFFFFFFFFFFFFFFFFFFFFFFFFFFFFFFF MUL NOT AND SWAP1 DUP4 PUSH20 0xFFFFFFFFFFFFFFFFFFFFFFFFFFFFFFFFFFFFFFFF AND MUL OR SWAP1 SSTORE POP PUSH1 0x1 PUSH1 0x0 SWAP1 SLOAD SWAP1 PUSH2 0x100 EXP SWAP1 DIV PUSH20 0xFFFFFFFFFFFFFFFFFFFFFFFFFFFFFFFFFFFFFFFF AND PUSH20 0xFFFFFFFFFFFFFFFFFFFFFFFFFFFFFFFFFFFFFFFF AND PUSH1 0x4 PUSH1 0x0 PUSH2 0x100 EXP DUP2 SLOAD DUP2 PUSH20 0xFFFFFFFFFFFFFFFFFFFFFFFFFFFFFFFFFFFFFFFF MUL NOT AND SWAP1 DUP4 PUSH20 0xFFFFFFFFFFFFFFFFFFFFFFFFFFFFFFFFFFFFFFFF AND MUL OR SWAP1 SSTORE POP PUSH1 0xA PUSH1 0x2 DUP2 SWAP1 SSTORE POP JUMP JUMPDEST PUSH20 0x0 PUSH4 0xBFBA5DD6 CALLER PUSH1 0x3 PUSH1 0x0 SWAP1 SLOAD SWAP1 PUSH2 0x100 EXP SWAP1 DIV PUSH20 0xFFFFFFFFFFFFFFFFFFFFFFFFFFFFFFFFFFFFFFFF AND PUSH1 0x40 MLOAD DUP4 PUSH4 0xFFFFFFFF AND PUSH1 0xE0 SHL DUP2 MSTORE PUSH1 0x4 ADD PUSH2 0x1E5 SWAP3 SWAP2 SWAP1 PUSH2 0x70A JUMP JUMPDEST PUSH1 0x20 PUSH1 0x40 MLOAD DUP1 DUP4 SUB DUP2 DUP7 DUP1 EXTCODESIZE ISZERO DUP1 ISZERO PUSH2 0x1FD JUMPI PUSH1 0x0 DUP1 REVERT JUMPDEST POP GAS DELEGATECALL ISZERO DUP1 ISZERO PUSH2 0x211 JUMPI RETURNDATASIZE PUSH1 0x0 DUP1 RETURNDATACOPY RETURNDATASIZE PUSH1 0x0 REVERT JUMPDEST POP POP POP POP PUSH1 0x40 MLOAD RETURNDATASIZE PUSH1 0x1F NOT PUSH1 0x1F DUP3 ADD AND DUP3 ADD DUP1 PUSH1 0x40 MSTORE POP DUP2 ADD SWAP1 PUSH2 0x235 SWAP2 SWAP1 PUSH2 0x570 JUMP JUMPDEST POP PUSH20 0x0 PUSH4 0xBFBA5DD6 PUSH1 0x4 PUSH1 0x0 SWAP1 SLOAD SWAP1 PUSH2 0x100 EXP SWAP1 DIV PUSH20 0xFFFFFFFFFFFFFFFFFFFFFFFFFFFFFFFFFFFFFFFF AND PUSH1 0x1 PUSH1 0x0 SWAP1 SLOAD SWAP1 PUSH2 0x100 EXP SWAP1 DIV PUSH20 0xFFFFFFFFFFFFFFFFFFFFFFFFFFFFFFFFFFFFFFFF AND PUSH20 0xFFFFFFFFFFFFFFFFFFFFFFFFFFFFFFFFFFFFFFFF AND PUSH1 0x40 MLOAD DUP4 PUSH4 0xFFFFFFFF AND PUSH1 0xE0 SHL DUP2 MSTORE PUSH1 0x4 ADD PUSH2 0x2C9 SWAP3 SWAP2 SWAP1 PUSH2 0x6CE JUMP JUMPDEST PUSH1 0x20 PUSH1 0x40 MLOAD DUP1 DUP4 SUB DUP2 DUP7 DUP1 EXTCODESIZE ISZERO DUP1 ISZERO PUSH2 0x2E1 JUMPI PUSH1 0x0 DUP1 REVERT JUMPDEST POP GAS DELEGATECALL ISZERO DUP1 ISZERO PUSH2 0x2F5 JUMPI RETURNDATASIZE PUSH1 0x0 DUP1 RETURNDATACOPY RETURNDATASIZE PUSH1 0x0 REVERT JUMPDEST POP POP POP POP PUSH1 0x40 MLOAD RETURNDATASIZE PUSH1 0x1F NOT PUSH1 0x1F DUP3 ADD AND DUP3 ADD DUP1 PUSH1 0x40 MSTORE POP DUP2 ADD SWAP1 PUSH2 0x319 SWAP2 SWAP1 PUSH2 0x570 JUMP JUMPDEST POP PUSH1 0x1 PUSH1 0x0 SWAP1 SLOAD SWAP1 PUSH2 0x100 EXP SWAP1 POP POP PUSH20 0x0 PUSH4 0xABCD7960 PUSH1 0x1 PUSH1 0x0 SWAP1 SLOAD SWAP1 PUSH2 0x100 EXP SWAP1 DIV PUSH20 0xFFFFFFFFFFFFFFFFFFFFFFFFFFFFFFFFFFFFFFFF AND PUSH20 0xFFFFFFFFFFFFFFFFFFFFFFFFFFFFFFFFFFFFFFFF AND PUSH4 0xD57BDE79 PUSH1 0x40 MLOAD DUP2 PUSH4 0xFFFFFFFF AND PUSH1 0xE0 SHL DUP2 MSTORE PUSH1 0x4 ADD PUSH1 0x20 PUSH1 0x40 MLOAD DUP1 DUP4 SUB DUP2 DUP7 DUP1 EXTCODESIZE ISZERO DUP1 ISZERO PUSH2 0x3AA JUMPI PUSH1 0x0 DUP1 REVERT JUMPDEST POP GAS STATICCALL ISZERO DUP1 ISZERO PUSH2 0x3BE JUMPI RETURNDATASIZE PUSH1 0x0 DUP1 RETURNDATACOPY RETURNDATASIZE PUSH1 0x0 REVERT JUMPDEST POP POP POP POP PUSH1 0x40 MLOAD RETURNDATASIZE PUSH1 0x1F NOT PUSH1 0x1F DUP3 ADD AND DUP3 ADD DUP1 PUSH1 0x40 MSTORE POP DUP2 ADD SWAP1 PUSH2 0x3E2 SWAP2 SWAP1 PUSH2 0x59D JUMP JUMPDEST PUSH1 0x2 SLOAD PUSH1 0x40 MLOAD DUP4 PUSH4 0xFFFFFFFF AND PUSH1 0xE0 SHL DUP2 MSTORE PUSH1 0x4 ADD PUSH2 0x402 SWAP3 SWAP2 SWAP1 PUSH2 0x76F JUMP JUMPDEST PUSH1 0x20 PUSH1 0x40 MLOAD DUP1 DUP4 SUB DUP2 DUP7 DUP1 EXTCODESIZE ISZERO DUP1 ISZERO PUSH2 0x41A JUMPI PUSH1 0x0 DUP1 REVERT JUMPDEST POP GAS DELEGATECALL ISZERO DUP1 ISZERO PUSH2 0x42E JUMPI RETURNDATASIZE PUSH1 0x0 DUP1 RETURNDATACOPY RETURNDATASIZE PUSH1 0x0 REVERT JUMPDEST POP POP POP POP PUSH1 0x40 MLOAD RETURNDATASIZE PUSH1 0x1F NOT PUSH1 0x1F DUP3 ADD AND DUP3 ADD DUP1 PUSH1 0x40 MSTORE POP DUP2 ADD SWAP1 PUSH2 0x452 SWAP2 SWAP1 PUSH2 0x570 JUMP JUMPDEST POP PUSH20 0x0 PUSH4 0xBFBA5DD6 PUSH1 0x1 PUSH1 0x0 SWAP1 SLOAD SWAP1 PUSH2 0x100 EXP SWAP1 DIV PUSH20 0xFFFFFFFFFFFFFFFFFFFFFFFFFFFFFFFFFFFFFFFF AND PUSH20 0xFFFFFFFFFFFFFFFFFFFFFFFFFFFFFFFFFFFFFFFF AND PUSH1 0x3 PUSH1 0x0 SWAP1 SLOAD SWAP1 PUSH2 0x100 EXP SWAP1 DIV PUSH20 0xFFFFFFFFFFFFFFFFFFFFFFFFFFFFFFFFFFFFFFFF AND PUSH1 0x40 MLOAD DUP4 PUSH4 0xFFFFFFFF AND PUSH1 0xE0 SHL DUP2 MSTORE PUSH1 0x4 ADD PUSH2 0x4E6 SWAP3 SWAP2 SWAP1 PUSH2 0x692 JUMP JUMPDEST PUSH1 0x20 PUSH1 0x40 MLOAD DUP1 DUP4 SUB DUP2 DUP7 DUP1 EXTCODESIZE ISZERO DUP1 ISZERO PUSH2 0x4FE JUMPI PUSH1 0x0 DUP1 REVERT JUMPDEST POP GAS DELEGATECALL ISZERO DUP1 ISZERO PUSH2 0x512 JUMPI RETURNDATASIZE PUSH1 0x0 DUP1 RETURNDATACOPY RETURNDATASIZE PUSH1 0x0 REVERT JUMPDEST POP POP POP POP PUSH1 0x40 MLOAD RETURNDATASIZE PUSH1 0x1F NOT PUSH1 0x1F DUP3 ADD AND DUP3 ADD DUP1 PUSH1 0x40 MSTORE POP DUP2 ADD SWAP1 PUSH2 0x536 SWAP2 SWAP1 PUSH2 0x570 JUMP JUMPDEST POP JUMP JUMPDEST PUSH2 0x9B7 DUP1 PUSH2 0x900 DUP4 CODECOPY ADD SWAP1 JUMP JUMPDEST PUSH1 0x0 DUP2 MLOAD SWAP1 POP PUSH2 0x555 DUP2 PUSH2 0x8D1 JUMP JUMPDEST SWAP3 SWAP2 POP POP JUMP JUMPDEST PUSH1 0x0 DUP2 MLOAD SWAP1 POP PUSH2 0x56A DUP2 PUSH2 0x8E8 JUMP JUMPDEST SWAP3 SWAP2 POP POP JUMP JUMPDEST PUSH1 0x0 PUSH1 0x20 DUP3 DUP5 SUB SLT ISZERO PUSH2 0x586 JUMPI PUSH2 0x585 PUSH2 0x828 JUMP JUMPDEST JUMPDEST PUSH1 0x0 PUSH2 0x594 DUP5 DUP3 DUP6 ADD PUSH2 0x546 JUMP JUMPDEST SWAP2 POP POP SWAP3 SWAP2 POP POP JUMP JUMPDEST PUSH1 0x0 PUSH1 0x20 DUP3 DUP5 SUB SLT ISZERO PUSH2 0x5B3 JUMPI PUSH2 0x5B2 PUSH2 0x828 JUMP JUMPDEST JUMPDEST PUSH1 0x0 PUSH2 0x5C1 DUP5 DUP3 DUP6 ADD PUSH2 0x55B JUMP JUMPDEST SWAP2 POP POP SWAP3 SWAP2 POP POP JUMP JUMPDEST PUSH2 0x5D3 DUP2 PUSH2 0x7CE JUMP JUMPDEST DUP3 MSTORE POP POP JUMP JUMPDEST PUSH2 0x5E2 DUP2 PUSH2 0x7BC JUMP JUMPDEST DUP3 MSTORE POP POP JUMP JUMPDEST PUSH2 0x5F1 DUP2 PUSH2 0x816 JUMP JUMPDEST DUP3 MSTORE POP POP JUMP JUMPDEST PUSH1 0x0 PUSH2 0x604 PUSH1 0x19 DUP4 PUSH2 0x7AB JUMP JUMPDEST SWAP2 POP PUSH2 0x60F DUP3 PUSH2 0x82D JUMP JUMPDEST PUSH1 0x20 DUP3 ADD SWAP1 POP SWAP2 SWAP1 POP JUMP JUMPDEST PUSH1 0x0 PUSH2 0x627 PUSH1 0x15 DUP4 PUSH2 0x7AB JUMP JUMPDEST SWAP2 POP PUSH2 0x632 DUP3 PUSH2 0x856 JUMP JUMPDEST PUSH1 0x20 DUP3 ADD SWAP1 POP SWAP2 SWAP1 POP JUMP JUMPDEST PUSH1 0x0 PUSH2 0x64A PUSH1 0x18 DUP4 PUSH2 0x7AB JUMP JUMPDEST SWAP2 POP PUSH2 0x655 DUP3 PUSH2 0x87F JUMP JUMPDEST PUSH1 0x20 DUP3 ADD SWAP1 POP SWAP2 SWAP1 POP JUMP JUMPDEST PUSH1 0x0 PUSH2 0x66D PUSH1 0x15 DUP4 PUSH2 0x7AB JUMP JUMPDEST SWAP2 POP PUSH2 0x678 DUP3 PUSH2 0x8A8 JUMP JUMPDEST PUSH1 0x20 DUP3 ADD SWAP1 POP SWAP2 SWAP1 POP JUMP JUMPDEST PUSH2 0x68C DUP2 PUSH2 0x80C JUMP JUMPDEST DUP3 MSTORE POP POP JUMP JUMPDEST PUSH1 0x0 PUSH1 0x60 DUP3 ADD SWAP1 POP PUSH2 0x6A7 PUSH1 0x0 DUP4 ADD DUP6 PUSH2 0x5D9 JUMP JUMPDEST PUSH2 0x6B4 PUSH1 0x20 DUP4 ADD DUP5 PUSH2 0x5D9 JUMP JUMPDEST DUP2 DUP2 SUB PUSH1 0x40 DUP4 ADD MSTORE PUSH2 0x6C5 DUP2 PUSH2 0x61A JUMP JUMPDEST SWAP1 POP SWAP4 SWAP3 POP POP POP JUMP JUMPDEST PUSH1 0x0 PUSH1 0x60 DUP3 ADD SWAP1 POP PUSH2 0x6E3 PUSH1 0x0 DUP4 ADD DUP6 PUSH2 0x5D9 JUMP JUMPDEST PUSH2 0x6F0 PUSH1 0x20 DUP4 ADD DUP5 PUSH2 0x5D9 JUMP JUMPDEST DUP2 DUP2 SUB PUSH1 0x40 DUP4 ADD MSTORE PUSH2 0x701 DUP2 PUSH2 0x63D JUMP JUMPDEST SWAP1 POP SWAP4 SWAP3 POP POP POP JUMP JUMPDEST PUSH1 0x0 PUSH1 0x60 DUP3 ADD SWAP1 POP PUSH2 0x71F PUSH1 0x0 DUP4 ADD DUP6 PUSH2 0x5D9 JUMP JUMPDEST PUSH2 0x72C PUSH1 0x20 DUP4 ADD DUP5 PUSH2 0x5D9 JUMP JUMPDEST DUP2 DUP2 SUB PUSH1 0x40 DUP4 ADD MSTORE PUSH2 0x73D DUP2 PUSH2 0x660 JUMP JUMPDEST SWAP1 POP SWAP4 SWAP3 POP POP POP JUMP JUMPDEST PUSH1 0x0 PUSH1 0x40 DUP3 ADD SWAP1 POP PUSH2 0x75B PUSH1 0x0 DUP4 ADD DUP6 PUSH2 0x5E8 JUMP JUMPDEST PUSH2 0x768 PUSH1 0x20 DUP4 ADD DUP5 PUSH2 0x5CA JUMP JUMPDEST SWAP4 SWAP3 POP POP POP JUMP JUMPDEST PUSH1 0x0 PUSH1 0x60 DUP3 ADD SWAP1 POP PUSH2 0x784 PUSH1 0x0 DUP4 ADD DUP6 PUSH2 0x683 JUMP JUMPDEST PUSH2 0x791 PUSH1 0x20 DUP4 ADD DUP5 PUSH2 0x683 JUMP JUMPDEST DUP2 DUP2 SUB PUSH1 0x40 DUP4 ADD MSTORE PUSH2 0x7A2 DUP2 PUSH2 0x5F7 JUMP JUMPDEST SWAP1 POP SWAP4 SWAP3 POP POP POP JUMP JUMPDEST PUSH1 0x0 DUP3 DUP3 MSTORE PUSH1 0x20 DUP3 ADD SWAP1 POP SWAP3 SWAP2 POP POP JUMP JUMPDEST PUSH1 0x0 PUSH2 0x7C7 DUP3 PUSH2 0x7EC JUMP JUMPDEST SWAP1 POP SWAP2 SWAP1 POP JUMP JUMPDEST PUSH1 0x0 PUSH2 0x7D9 DUP3 PUSH2 0x7EC JUMP JUMPDEST SWAP1 POP SWAP2 SWAP1 POP JUMP JUMPDEST PUSH1 0x0 DUP2 ISZERO ISZERO SWAP1 POP SWAP2 SWAP1 POP JUMP JUMPDEST PUSH1 0x0 PUSH20 0xFFFFFFFFFFFFFFFFFFFFFFFFFFFFFFFFFFFFFFFF DUP3 AND SWAP1 POP SWAP2 SWAP1 POP JUMP JUMPDEST PUSH1 0x0 DUP2 SWAP1 POP SWAP2 SWAP1 POP JUMP JUMPDEST PUSH1 0x0 PUSH2 0x821 DUP3 PUSH2 0x80C JUMP JUMPDEST SWAP1 POP SWAP2 SWAP1 POP JUMP JUMPDEST PUSH1 0x0 DUP1 REVERT JUMPDEST PUSH32 0x6973206E6F742031302074686520686967686573742062696400000000000000 PUSH1 0x0 DUP3 ADD MSTORE POP JUMP JUMPDEST PUSH32 0x6973206E6F742068696768657374206269646465720000000000000000000000 PUSH1 0x0 DUP3 ADD MSTORE POP JUMP JUMPDEST PUSH32 0x41756374696F6E20636F6E747261637420616464726573730000000000000000 PUSH1 0x0 DUP3 ADD MSTORE POP JUMP JUMPDEST PUSH32 0x5468697320636F6E747261637420616464726573730000000000000000000000 PUSH1 0x0 DUP3 ADD MSTORE POP JUMP JUMPDEST PUSH2 0x8DA DUP2 PUSH2 0x7E0 JUMP JUMPDEST DUP2 EQ PUSH2 0x8E5 JUMPI PUSH1 0x0 DUP1 REVERT JUMPDEST POP JUMP JUMPDEST PUSH2 0x8F1 DUP2 PUSH2 0x80C JUMP JUMPDEST DUP2 EQ PUSH2 0x8FC JUMPI PUSH1 0x0 DUP1 REVERT JUMPDEST POP JUMP INVALID PUSH1 0x80 PUSH1 0x40 MSTORE CALLVALUE DUP1 ISZERO PUSH2 0x10 JUMPI PUSH1 0x0 DUP1 REVERT JUMPDEST POP PUSH1 0x40 MLOAD PUSH2 0x9B7 CODESIZE SUB DUP1 PUSH2 0x9B7 DUP4 CODECOPY DUP2 DUP2 ADD PUSH1 0x40 MSTORE DUP2 ADD SWAP1 PUSH2 0x32 SWAP2 SWAP1 PUSH2 0xB5 JUMP JUMPDEST DUP1 PUSH1 0x0 DUP1 PUSH2 0x100 EXP DUP2 SLOAD DUP2 PUSH20 0xFFFFFFFFFFFFFFFFFFFFFFFFFFFFFFFFFFFFFFFF MUL NOT AND SWAP1 DUP4 PUSH20 0xFFFFFFFFFFFFFFFFFFFFFFFFFFFFFFFFFFFFFFFF AND MUL OR SWAP1 SSTORE POP DUP2 TIMESTAMP PUSH2 0x7E SWAP2 SWAP1 PUSH2 0xF5 JUMP JUMPDEST PUSH1 0x1 DUP2 SWAP1 SSTORE POP POP POP PUSH2 0x1E9 JUMP JUMPDEST PUSH1 0x0 DUP2 MLOAD SWAP1 POP PUSH2 0x9A DUP2 PUSH2 0x1BB JUMP JUMPDEST SWAP3 SWAP2 POP POP JUMP JUMPDEST PUSH1 0x0 DUP2 MLOAD SWAP1 POP PUSH2 0xAF DUP2 PUSH2 0x1D2 JUMP JUMPDEST SWAP3 SWAP2 POP POP JUMP JUMPDEST PUSH1 0x0 DUP1 PUSH1 0x40 DUP4 DUP6 SUB SLT ISZERO PUSH2 0xCC JUMPI PUSH2 0xCB PUSH2 0x1B6 JUMP JUMPDEST JUMPDEST PUSH1 0x0 PUSH2 0xDA DUP6 DUP3 DUP7 ADD PUSH2 0xA0 JUMP JUMPDEST SWAP3 POP POP PUSH1 0x20 PUSH2 0xEB DUP6 DUP3 DUP7 ADD PUSH2 0x8B JUMP JUMPDEST SWAP2 POP POP SWAP3 POP SWAP3 SWAP1 POP JUMP JUMPDEST PUSH1 0x0 PUSH2 0x100 DUP3 PUSH2 0x17D JUMP JUMPDEST SWAP2 POP PUSH2 0x10B DUP4 PUSH2 0x17D JUMP JUMPDEST SWAP3 POP DUP3 PUSH32 0xFFFFFFFFFFFFFFFFFFFFFFFFFFFFFFFFFFFFFFFFFFFFFFFFFFFFFFFFFFFFFFFF SUB DUP3 GT ISZERO PUSH2 0x140 JUMPI PUSH2 0x13F PUSH2 0x187 JUMP JUMPDEST JUMPDEST DUP3 DUP3 ADD SWAP1 POP SWAP3 SWAP2 POP POP JUMP JUMPDEST PUSH1 0x0 PUSH2 0x156 DUP3 PUSH2 0x15D JUMP JUMPDEST SWAP1 POP SWAP2 SWAP1 POP JUMP JUMPDEST PUSH1 0x0 PUSH20 0xFFFFFFFFFFFFFFFFFFFFFFFFFFFFFFFFFFFFFFFF DUP3 AND SWAP1 POP SWAP2 SWAP1 POP JUMP JUMPDEST PUSH1 0x0 DUP2 SWAP1 POP SWAP2 SWAP1 POP JUMP JUMPDEST PUSH32 0x4E487B7100000000000000000000000000000000000000000000000000000000 PUSH1 0x0 MSTORE PUSH1 0x11 PUSH1 0x4 MSTORE PUSH1 0x24 PUSH1 0x0 REVERT JUMPDEST PUSH1 0x0 DUP1 REVERT JUMPDEST PUSH2 0x1C4 DUP2 PUSH2 0x14B JUMP JUMPDEST DUP2 EQ PUSH2 0x1CF JUMPI PUSH1 0x0 DUP1 REVERT JUMPDEST POP JUMP JUMPDEST PUSH2 0x1DB DUP2 PUSH2 0x17D JUMP JUMPDEST DUP2 EQ PUSH2 0x1E6 JUMPI PUSH1 0x0 DUP1 REVERT JUMPDEST POP JUMP JUMPDEST PUSH2 0x7BF DUP1 PUSH2 0x1F8 PUSH1 0x0 CODECOPY PUSH1 0x0 RETURN INVALID PUSH1 0x80 PUSH1 0x40 MSTORE PUSH1 0x4 CALLDATASIZE LT PUSH2 0x70 JUMPI PUSH1 0x0 CALLDATALOAD PUSH1 0xE0 SHR DUP1 PUSH4 0x3CCFD60B GT PUSH2 0x4E JUMPI DUP1 PUSH4 0x3CCFD60B EQ PUSH2 0xC1 JUMPI DUP1 PUSH4 0x4B449CBA EQ PUSH2 0xEC JUMPI DUP1 PUSH4 0x91F90157 EQ PUSH2 0x117 JUMPI DUP1 PUSH4 0xD57BDE79 EQ PUSH2 0x142 JUMPI PUSH2 0x70 JUMP JUMPDEST DUP1 PUSH4 0x1998AEEF EQ PUSH2 0x75 JUMPI DUP1 PUSH4 0x2A24F46C EQ PUSH2 0x7F JUMPI DUP1 PUSH4 0x38AF3EED EQ PUSH2 0x96 JUMPI JUMPDEST PUSH1 0x0 DUP1 REVERT JUMPDEST PUSH2 0x7D PUSH2 0x16D JUMP JUMPDEST STOP JUMPDEST CALLVALUE DUP1 ISZERO PUSH2 0x8B JUMPI PUSH1 0x0 DUP1 REVERT JUMPDEST POP PUSH2 0x94 PUSH2 0x2F9 JUMP JUMPDEST STOP JUMPDEST CALLVALUE DUP1 ISZERO PUSH2 0xA2 JUMPI PUSH1 0x0 DUP1 REVERT JUMPDEST POP PUSH2 0xAB PUSH2 0x45F JUMP JUMPDEST PUSH1 0x40 MLOAD PUSH2 0xB8 SWAP2 SWAP1 PUSH2 0x630 JUMP JUMPDEST PUSH1 0x40 MLOAD DUP1 SWAP2 SUB SWAP1 RETURN JUMPDEST CALLVALUE DUP1 ISZERO PUSH2 0xCD JUMPI PUSH1 0x0 DUP1 REVERT JUMPDEST POP PUSH2 0xD6 PUSH2 0x483 JUMP JUMPDEST PUSH1 0x40 MLOAD PUSH2 0xE3 SWAP2 SWAP1 PUSH2 0x674 JUMP JUMPDEST PUSH1 0x40 MLOAD DUP1 SWAP2 SUB SWAP1 RETURN JUMPDEST CALLVALUE DUP1 ISZERO PUSH2 0xF8 JUMPI PUSH1 0x0 DUP1 REVERT JUMPDEST POP PUSH2 0x101 PUSH2 0x5A7 JUMP JUMPDEST PUSH1 0x40 MLOAD PUSH2 0x10E SWAP2 SWAP1 PUSH2 0x68F JUMP JUMPDEST PUSH1 0x40 MLOAD DUP1 SWAP2 SUB SWAP1 RETURN JUMPDEST CALLVALUE DUP1 ISZERO PUSH2 0x123 JUMPI PUSH1 0x0 DUP1 REVERT JUMPDEST POP PUSH2 0x12C PUSH2 0x5AD JUMP JUMPDEST PUSH1 0x40 MLOAD PUSH2 0x139 SWAP2 SWAP1 PUSH2 0x615 JUMP JUMPDEST PUSH1 0x40 MLOAD DUP1 SWAP2 SUB SWAP1 RETURN JUMPDEST CALLVALUE DUP1 ISZERO PUSH2 0x14E JUMPI PUSH1 0x0 DUP1 REVERT JUMPDEST POP PUSH2 0x157 PUSH2 0x5D3 JUMP JUMPDEST PUSH1 0x40 MLOAD PUSH2 0x164 SWAP2 SWAP1 PUSH2 0x68F JUMP JUMPDEST PUSH1 0x40 MLOAD DUP1 SWAP2 SUB SWAP1 RETURN JUMPDEST PUSH1 0x1 SLOAD TIMESTAMP GT ISZERO PUSH2 0x1A9 JUMPI PUSH1 0x40 MLOAD PUSH32 0xD02E774D00000000000000000000000000000000000000000000000000000000 DUP2 MSTORE PUSH1 0x4 ADD PUSH1 0x40 MLOAD DUP1 SWAP2 SUB SWAP1 REVERT JUMPDEST PUSH1 0x3 SLOAD CALLVALUE GT PUSH2 0x1F1 JUMPI PUSH1 0x3 SLOAD PUSH1 0x40 MLOAD PUSH32 0x4E12C1BB00000000000000000000000000000000000000000000000000000000 DUP2 MSTORE PUSH1 0x4 ADD PUSH2 0x1E8 SWAP2 SWAP1 PUSH2 0x68F JUMP JUMPDEST PUSH1 0x40 MLOAD DUP1 SWAP2 SUB SWAP1 REVERT JUMPDEST PUSH1 0x0 PUSH1 0x3 SLOAD EQ PUSH2 0x276 JUMPI PUSH1 0x3 SLOAD PUSH1 0x4 PUSH1 0x0 PUSH1 0x2 PUSH1 0x0 SWAP1 SLOAD SWAP1 PUSH2 0x100 EXP SWAP1 DIV PUSH20 0xFFFFFFFFFFFFFFFFFFFFFFFFFFFFFFFFFFFFFFFF AND PUSH20 0xFFFFFFFFFFFFFFFFFFFFFFFFFFFFFFFFFFFFFFFF AND PUSH20 0xFFFFFFFFFFFFFFFFFFFFFFFFFFFFFFFFFFFFFFFF AND DUP2 MSTORE PUSH1 0x20 ADD SWAP1 DUP2 MSTORE PUSH1 0x20 ADD PUSH1 0x0 KECCAK256 PUSH1 0x0 DUP3 DUP3 SLOAD PUSH2 0x26E SWAP2 SWAP1 PUSH2 0x6AA JUMP JUMPDEST SWAP3 POP POP DUP2 SWAP1 SSTORE POP JUMPDEST CALLER PUSH1 0x2 PUSH1 0x0 PUSH2 0x100 EXP DUP2 SLOAD DUP2 PUSH20 0xFFFFFFFFFFFFFFFFFFFFFFFFFFFFFFFFFFFFFFFF MUL NOT AND SWAP1 DUP4 PUSH20 0xFFFFFFFFFFFFFFFFFFFFFFFFFFFFFFFFFFFFFFFF AND MUL OR SWAP1 SSTORE POP CALLVALUE PUSH1 0x3 DUP2 SWAP1 SSTORE POP PUSH32 0xF4757A49B326036464BEC6FE419A4AE38C8A02CE3E68BF0809674F6AAB8AD300 CALLER CALLVALUE PUSH1 0x40 MLOAD PUSH2 0x2EF SWAP3 SWAP2 SWAP1 PUSH2 0x64B JUMP JUMPDEST PUSH1 0x40 MLOAD DUP1 SWAP2 SUB SWAP1 LOG1 JUMP JUMPDEST PUSH1 0x1 SLOAD TIMESTAMP LT ISZERO PUSH2 0x335 JUMPI PUSH1 0x40 MLOAD PUSH32 0x44CEE29000000000000000000000000000000000000000000000000000000000 DUP2 MSTORE PUSH1 0x4 ADD PUSH1 0x40 MLOAD DUP1 SWAP2 SUB SWAP1 REVERT JUMPDEST PUSH1 0x5 PUSH1 0x0 SWAP1 SLOAD SWAP1 PUSH2 0x100 EXP SWAP1 DIV PUSH1 0xFF AND ISZERO PUSH2 0x37C JUMPI PUSH1 0x40 MLOAD PUSH32 0x61CFDCF800000000000000000000000000000000000000000000000000000000 DUP2 MSTORE PUSH1 0x4 ADD PUSH1 0x40 MLOAD DUP1 SWAP2 SUB SWAP1 REVERT JUMPDEST PUSH1 0x1 PUSH1 0x5 PUSH1 0x0 PUSH2 0x100 EXP DUP2 SLOAD DUP2 PUSH1 0xFF MUL NOT AND SWAP1 DUP4 ISZERO ISZERO MUL OR SWAP1 SSTORE POP PUSH32 0xDAEC4582D5D9595688C8C98545FDD1C696D41C6AEAEB636737E84ED2F5C00EDA PUSH1 0x2 PUSH1 0x0 SWAP1 SLOAD SWAP1 PUSH2 0x100 EXP SWAP1 DIV PUSH20 0xFFFFFFFFFFFFFFFFFFFFFFFFFFFFFFFFFFFFFFFF AND PUSH1 0x3 SLOAD PUSH1 0x40 MLOAD PUSH2 0x3EC SWAP3 SWAP2 SWAP1 PUSH2 0x64B JUMP JUMPDEST PUSH1 0x40 MLOAD DUP1 SWAP2 SUB SWAP1 LOG1 PUSH1 0x0 DUP1 SLOAD SWAP1 PUSH2 0x100 EXP SWAP1 DIV PUSH20 0xFFFFFFFFFFFFFFFFFFFFFFFFFFFFFFFFFFFFFFFF AND PUSH20 0xFFFFFFFFFFFFFFFFFFFFFFFFFFFFFFFFFFFFFFFF AND PUSH2 0x8FC PUSH1 0x3 SLOAD SWAP1 DUP2 ISZERO MUL SWAP1 PUSH1 0x40 MLOAD PUSH1 0x0 PUSH1 0x40 MLOAD DUP1 DUP4 SUB DUP2 DUP6 DUP9 DUP9 CALL SWAP4 POP POP POP POP ISZERO DUP1 ISZERO PUSH2 0x45C JUMPI RETURNDATASIZE PUSH1 0x0 DUP1 RETURNDATACOPY RETURNDATASIZE PUSH1 0x0 REVERT JUMPDEST POP JUMP JUMPDEST PUSH1 0x0 DUP1 SLOAD SWAP1 PUSH2 0x100 EXP SWAP1 DIV PUSH20 0xFFFFFFFFFFFFFFFFFFFFFFFFFFFFFFFFFFFFFFFF AND DUP2 JUMP JUMPDEST PUSH1 0x0 DUP1 PUSH1 0x4 PUSH1 0x0 CALLER PUSH20 0xFFFFFFFFFFFFFFFFFFFFFFFFFFFFFFFFFFFFFFFF AND PUSH20 0xFFFFFFFFFFFFFFFFFFFFFFFFFFFFFFFFFFFFFFFF AND DUP2 MSTORE PUSH1 0x20 ADD SWAP1 DUP2 MSTORE PUSH1 0x20 ADD PUSH1 0x0 KECCAK256 SLOAD SWAP1 POP PUSH1 0x0 DUP2 GT ISZERO PUSH2 0x59E JUMPI PUSH1 0x0 PUSH1 0x4 PUSH1 0x0 CALLER PUSH20 0xFFFFFFFFFFFFFFFFFFFFFFFFFFFFFFFFFFFFFFFF AND PUSH20 0xFFFFFFFFFFFFFFFFFFFFFFFFFFFFFFFFFFFFFFFF AND DUP2 MSTORE PUSH1 0x20 ADD SWAP1 DUP2 MSTORE PUSH1 0x20 ADD PUSH1 0x0 KECCAK256 DUP2 SWAP1 SSTORE POP CALLER PUSH20 0xFFFFFFFFFFFFFFFFFFFFFFFFFFFFFFFFFFFFFFFF AND PUSH2 0x8FC DUP3 SWAP1 DUP2 ISZERO MUL SWAP1 PUSH1 0x40 MLOAD PUSH1 0x0 PUSH1 0x40 MLOAD DUP1 DUP4 SUB DUP2 DUP6 DUP9 DUP9 CALL SWAP4 POP POP POP POP PUSH2 0x59D JUMPI DUP1 PUSH1 0x4 PUSH1 0x0 CALLER PUSH20 0xFFFFFFFFFFFFFFFFFFFFFFFFFFFFFFFFFFFFFFFF AND PUSH20 0xFFFFFFFFFFFFFFFFFFFFFFFFFFFFFFFFFFFFFFFF AND DUP2 MSTORE PUSH1 0x20 ADD SWAP1 DUP2 MSTORE PUSH1 0x20 ADD PUSH1 0x0 KECCAK256 DUP2 SWAP1 SSTORE POP PUSH1 0x0 SWAP2 POP POP PUSH2 0x5A4 JUMP JUMPDEST JUMPDEST PUSH1 0x1 SWAP2 POP POP JUMPDEST SWAP1 JUMP JUMPDEST PUSH1 0x1 SLOAD DUP2 JUMP JUMPDEST PUSH1 0x2 PUSH1 0x0 SWAP1 SLOAD SWAP1 PUSH2 0x100 EXP SWAP1 DIV PUSH20 0xFFFFFFFFFFFFFFFFFFFFFFFFFFFFFFFFFFFFFFFF AND DUP2 JUMP JUMPDEST PUSH1 0x3 SLOAD DUP2 JUMP JUMPDEST PUSH2 0x5E2 DUP2 PUSH2 0x712 JUMP JUMPDEST DUP3 MSTORE POP POP JUMP JUMPDEST PUSH2 0x5F1 DUP2 PUSH2 0x700 JUMP JUMPDEST DUP3 MSTORE POP POP JUMP JUMPDEST PUSH2 0x600 DUP2 PUSH2 0x724 JUMP JUMPDEST DUP3 MSTORE POP POP JUMP JUMPDEST PUSH2 0x60F DUP2 PUSH2 0x750 JUMP JUMPDEST DUP3 MSTORE POP POP JUMP JUMPDEST PUSH1 0x0 PUSH1 0x20 DUP3 ADD SWAP1 POP PUSH2 0x62A PUSH1 0x0 DUP4 ADD DUP5 PUSH2 0x5E8 JUMP JUMPDEST SWAP3 SWAP2 POP POP JUMP JUMPDEST PUSH1 0x0 PUSH1 0x20 DUP3 ADD SWAP1 POP PUSH2 0x645 PUSH1 0x0 DUP4 ADD DUP5 PUSH2 0x5D9 JUMP JUMPDEST SWAP3 SWAP2 POP POP JUMP JUMPDEST PUSH1 0x0 PUSH1 0x40 DUP3 ADD SWAP1 POP PUSH2 0x660 PUSH1 0x0 DUP4 ADD DUP6 PUSH2 0x5E8 JUMP JUMPDEST PUSH2 0x66D PUSH1 0x20 DUP4 ADD DUP5 PUSH2 0x606 JUMP JUMPDEST SWAP4 SWAP3 POP POP POP JUMP JUMPDEST PUSH1 0x0 PUSH1 0x20 DUP3 ADD SWAP1 POP PUSH2 0x689 PUSH1 0x0 DUP4 ADD DUP5 PUSH2 0x5F7 JUMP JUMPDEST SWAP3 SWAP2 POP POP JUMP JUMPDEST PUSH1 0x0 PUSH1 0x20 DUP3 ADD SWAP1 POP PUSH2 0x6A4 PUSH1 0x0 DUP4 ADD DUP5 PUSH2 0x606 JUMP JUMPDEST SWAP3 SWAP2 POP POP JUMP JUMPDEST PUSH1 0x0 PUSH2 0x6B5 DUP3 PUSH2 0x750 JUMP JUMPDEST SWAP2 POP PUSH2 0x6C0 DUP4 PUSH2 0x750 JUMP JUMPDEST SWAP3 POP DUP3 PUSH32 0xFFFFFFFFFFFFFFFFFFFFFFFFFFFFFFFFFFFFFFFFFFFFFFFFFFFFFFFFFFFFFFFF SUB DUP3 GT ISZERO PUSH2 0x6F5 JUMPI PUSH2 0x6F4 PUSH2 0x75A JUMP JUMPDEST JUMPDEST DUP3 DUP3 ADD SWAP1 POP SWAP3 SWAP2 POP POP JUMP JUMPDEST PUSH1 0x0 PUSH2 0x70B DUP3 PUSH2 0x730 JUMP JUMPDEST SWAP1 POP SWAP2 SWAP1 POP JUMP JUMPDEST PUSH1 0x0 PUSH2 0x71D DUP3 PUSH2 0x730 JUMP JUMPDEST SWAP1 POP SWAP2 SWAP1 POP JUMP JUMPDEST PUSH1 0x0 DUP2 ISZERO ISZERO SWAP1 POP SWAP2 SWAP1 POP JUMP JUMPDEST PUSH1 0x0 PUSH20 0xFFFFFFFFFFFFFFFFFFFFFFFFFFFFFFFFFFFFFFFF DUP3 AND SWAP1 POP SWAP2 SWAP1 POP JUMP JUMPDEST PUSH1 0x0 DUP2 SWAP1 POP SWAP2 SWAP1 POP JUMP JUMPDEST PUSH32 0x4E487B7100000000000000000000000000000000000000000000000000000000 PUSH1 0x0 MSTORE PUSH1 0x11 PUSH1 0x4 MSTORE PUSH1 0x24 PUSH1 0x0 REVERT INVALID LOG2 PUSH5 0x6970667358 0x22 SLT KECCAK256 DUP11 0x4B 0x24 0xE9 ADDMOD INVALID PUSH19 0x7762692D2DA4CA52F823B956671D86BCFDB859 DUP9 CODECOPY 0xBC BLOCKHASH PUSH27 0x9B64736F6C63430008070033A2646970667358221220F744DFB24D 0x2E 0xCC 0xE 0xF7 SWAP2 LOG1 0x5E JUMPI 0x27 SWAP10 0xF9 SUB 0xF7 0xC8 DUP11 DUP6 CALLDATACOPY MSIZE SELFBALANCE DUP11 0x4D 0xBA 0x21 OR 0xA8 MSIZE SWAP9 PUSH5 0x736F6C6343 STOP ADDMOD SMOD STOP CALLER "
				},
				"gasEstimates": {
					"creation": {
						"codeDepositCost": "968800",
						"executionCost": "1008",
						"totalCost": "969808"
					},
					"external": {
						"beforeAll()": "infinite",
						"bidSmall()": "infinite"
					}
				},
				"methodIdentifiers": {
					"beforeAll()": "7fea0d4b",
					"bidSmall()": "a335fe29"
				}
			},
			"userdoc": {
				"kind": "user",
				"methods": {},
				"version": 1
			}
		}
	}
}